:020000040800F2
:1000000078060020410200087D0200087F020008F7
:100010008102000883020008850200080000000039
:10002000000000000000000000000000870200083F
:1000300089020008000000008B020008F12500087A
:100040008F0200088F0200088F0200088F0200084C
:100050008F0200088F020008491200088F02000872
:100060008F0200088F0200088F0200088F0200082C
:100070008F0200088F0200088F0200088F0200081C
:100080008F0200088F0200088F0200088F0200080C
:100090008F0200088F0200088F0200088F020008FC
:1000A0008F0200088F0200088F0200088F020008EC
:1000B0008F0200088F0200088F0200088F020008DC
:1000C0008F0200088F0200088F0200088F020008CC
:1000D0008F0200088F0200088F0200088F020008BC
:1000E0008F0200088F0200088F0200088F020008AC
:1000F0008F0200088F0200088F0200088F0200089C
:100100008F0200088F0200088F0200088F0200088B
:100110008F0200088F0200088F0200088F0200087B
:100120008F0200088F0200088F0200088F0200086B
:100130008F0200088F0200088F0200088F0200085B
:100140008F0200088F0200088F0200088F0200084B
:100150008F0200088F0200088F0200088F0200083B
:100160008F0200088F0200088F0200088F0200082B
:100170008F0200088F0200088F02000800000000B4
:100180008F0200088F02000800F002F800F049F822
:100190000AA090E8000C82448344AAF10107DA45E2
:1001A00001D100F03EF8AFF2090EBAE80F0013F0EB
:1001B000010F18BFFB1A43F001031847502C000031
:1001C000702C0000103A24BF78C878C1FAD85207C2
:1001D00024BF30C830C144BF04680C6070470000C1
:1001E0000023002400250026103A28BF78C1FBD840
:1001F000520728BF30C148BF0B607047662902F024
:100200009585002070471FB502F08BFD00F0C2FA03
:1002100004000020002102F0F7FCE0601FBD10B5D3
:1002200010BD00F0D3FB1146FFF7EDFF02F012FC0A
:1002300000F0F1FB03B4FFF7F2FF03BC00F034FC65
:1002400016481749174B99423CBF50F8042B41F808
:10025000042BF8D314494FF000028B4238BF43F807
:10026000042BFAD3DFF84400016841F47001016007
:10027000BFF34F8FBFF36F8F0D480047FEE7FEE7D8
:10028000FEE7FEE7FEE7FEE7FEE7FEE7FEE7FEE746
:1002900008480949094A0A4B70470000482E0008DF
:1002A00000000020140000207806002088ED00E007
:1002B00089010008780000207806002078020020DC
:1002C000780200200FB4044910B503AA029800F088
:1002D0004FFA10BC5DF814FB000000202DE9F0413E
:1002E0000E460446002020622046E168884730B36D
:1002F000252805D0D4E901219047206A401CF2E767
:10030000E168204600278847050018D0A5F1410084
:10031000192802D820354FF4006732462946204676
:100320002760FFF76BFF40B1012804D0F61D26F0CF
:1003300007060836D8E7361DD6E72846DAE7206AEA
:10034000BDE8F08170477047704770472DE9FF4F57
:100350000C461E464FF0FF378BB0D2E90001DDF8A6
:1003600060800A908A46C1F30A5505B93D460021CE
:1003700008464FF00000BAF1000F00F4400005DA23
:1003800000EB80004FF4400101EA50004FEA905921
:10039000B9F1010F00DDB9460A9850EA4A000ED0C3
:1003A00044F61050A5F2FF3545432F14B8F1000F65
:1003B0001ED07542291E1EDDC9F100021CE0B8F1F5
:1003C000010F4FF0000001D0302103E0F24305E0BF
:1003D0002154401CB042FBDB304600220021215456
:1003E0000B99C1F80880C1E900200FB000F0BCB93A
:1003F000BD1B6D1CDEE74A4600DA694206A800F024
:100400006BFA06AB93E8070003AB83E8070050469E
:100410000A9900F050FB8DE80700A0F500501F3846
:1004200000900398002D0ADD42F21F014A4608445D
:10043000002303A90390684600F0B9FD09E0A0F588
:1004400000504A461F38002303A90390684600F075
:10045000C3FD8DE807000004000C03D04FF0FF300F
:10046000410800E01046B8F1000F03D000220092CE
:1004700015461EE0751E05D400F090F93032625525
:100480006D1EF9D5B3460122084302D000227F1C1D
:1004900004E02078302801D100227F1E002A09972D
:1004A00084D01DE0112D07DA00F078F93032625562
:1004B0006D1C50EA0102F5D1084302D00098C8B182
:1004C0000EE00021681E05E0235C625C6354225448
:1004D000401E491C8142F7DBAB46A81B401E099019
:1004E000002004F80B000B98099AC0F80880C0E9B6
:1004F000002B7AE711264FF0000857E72DE9F04F5F
:1005000088460446D21D22F0070191B0D1E90001CE
:10051000CDE90A0102F06AFA02460B98C00F01D039
:100520002D2007E02068810701D52B2002E0202143
:1005300001EAC000032A099001D0072A05DB03461F
:100540004146204600F088F90BE12078800601D56D
:10055000E06900E00620B8F1650F814606D0B8F1E9
:10056000660F18D0B8F1670F70D131E00020B9F1F3
:10057000110F009001DB112301E009F101030AAA28
:1005800001A90CA8FFF7E2FEDDE90C70002609F1D5
:100590000105834647E001204B4600904FF000479D
:1005A0000AAA01A90CA8FFF7D1FEDDE90DB00C994C
:1005B0005D46002610B909F101000D18B9EB0500E0
:1005C00003D4C0F1FF3609F10105A5EB09002BE0CA
:1005D000B9F1010F01DA4FF001090020B9F1110F53
:1005E0000090484601DD112300E003460AAA01A954
:1005F0000CA8FFF7ABFEDDE90C704D4600268346E4
:10060000207800070AD4AB4500DA5D4601A8012D29
:1006100004DD411911F8011C302907D04F4502DAD9
:1006200017F1040F04DA012082460FE06D1EEEE799
:10063000002F02DCED1B3E4403E0781CA84200DDE5
:100640007D1CB81B00F1010A4FF00047207800071D
:1006500003D4AA4501DB4FF0FF3A0021B7F1004F68
:100660000DF143088DF8431024D002202B23002FD6
:1006700001DA7F422D230A21021EA0F1010000DCD5
:100680005FB197FBF1FC97FBF1F201FB1C7C174675
:100690000CF1300C08F801CDEEE7A8F10100037071
:1006A0002188090501D5452100E06521A0F1010857
:1006B00000F8011C09980FA9A1EB0807FF1D00B164
:1006C0000120411901EBEA70A1693844081A401E63
:1006D000A0612078C00602D42046AFF300800998BC
:1006E00028B1D4E901219047206A401C206220787B
:1006F000C00622D52046AFF300801EE0002E04DBAA
:10070000B34502DD01A8805D00E03020D4E901217D
:100710009047206A401C2062761CAAF101005FEA23
:10072000000A0AD100F036F8C0680168405CD4E9DC
:1007300001219047206A401C2062281EA5F1010576
:10074000DCDC07E0D4E9012118F8010B9047206AAE
:10075000401C2062381EA7F10107F3DC2046AFF3EE
:100760000080032011B041E630BCBDE8C08F00001E
:10077000074B70B50D467B4400F05BF804462846F5
:1007800000F01CF910B14FF0FF3070BD204670BD75
:10079000BF220000004870473400002030B5B0F19F
:1007A0000A024FEA900E71F100034EEA817EB0EB2F
:1007B0000E0061EB91014FEA101E4EEA017E10EB34
:1007C0000E0041EB11114FEA102E4EEA016E10EBB4
:1007D0000E0041EB11214FEA104E4EEA014E10EB94
:1007E0000E0041EB1141401841F100014FEAD000E9
:1007F00040EA41704FEAD10110EB80054FEA8104D5
:1008000044EA907444EB01046D1944EB0404521B58
:10081000A3414FF0000348BF0A3200D530BD401C51
:1008200041F1000130BD000001694A1C02610878F5
:10083000704700B58FB0CDE9013100210591054920
:100840007944CDE9031011466846FFF747FD0FB024
:1008500000BD0000E5FFFFFF2DE9F0411F46044603
:1008600003260168072A01F4006004DB08B116A51D
:1008700005E016A503E008B115A500E015A521F0D7
:1008800010002060A069C01EA0610FB1401EA061D1
:100890002046AFF300804FB1D4E90121384690479C
:1008A000206A401C2062C01C206206E0206AFAE731
:1008B000D4E9012115F8010B9047761EF8D22046A5
:1008C000AFF30080BDE8F0814E414E006E616E00D6
:1008D000494E4600696E66002DE9F047814616468E
:1008E0008AB0354878440DC88DE80D003248784408
:1008F000801C03AC0DC884E80D0041F69B30084411
:10090000372190FBF1F290FBF1F5A5F1800501FB99
:1009100012041B3C02D56442012000E00020DFF8F5
:1009200098A080460027FA44AAF1BE0A0EE0E0072C
:100930000AD03246684607EB470101230AEB8101E2
:1009400000F04AFB8DE8070064107F1C002CEED1FC
:10095000194F7F44AE3F19E0E80715D007EB0410AC
:100960000DF1180A90E80E008AE80E00C068F04207
:1009700001D1981908903246012306A903A800F076
:100980002BFB03AB83E807006D10641C002DE3D143
:100990004FF0010332466946B8F1000F03A802D0B8
:1009A00000F005FB01E000F017FBC9E90001C9F800
:1009B00008200AB0BDE8F0870C250000007B00F09D
:1009C0008000704700487047140000207546FFF70C
:1009D000F9FFAE4605006946534620F007008546FC
:1009E00018B020B5FFF754FCBDE820404FF00006DA
:1009F0004FF000074FF000084FF0000B21F0070107
:100A0000AC46ACE8C009ACE8C009ACE8C009ACE849
:100A1000C0098D46704710B50446AFF300802046EC
:100A2000BDE81040FFF706BC4FF0013C50F8042B26
:100A300051F8043B9A4221D1A2EB0C03934313EAF1
:100A4000CC1317D150F8042B51F8043B9A4215D11E
:100A5000A2EB0C03934313EACC130BD150F8042BF5
:100A600051F8043B9A4209D1A2EB0C03934313EAD9
:100A7000CC13DBD04FF00000704700BFD01A01BA92
:100A8000B1FA81F101F0180122FA01F0CB40C1F175
:100A90002001DBB2C0B2C01A2CFA01F3D11A914383
:100AA00011EAC311E6D1704701491820ABBEFEE739
:100AB0002600020070475FEA400C08BF91F0000F6B
:100AC0004FEA8C234FEAC12243EA51514FEA1C50AE
:100AD00018BF00F5F0404FEA300018BF41F0004168
:100AE0005FEA6C5C00F02980BCF1FF3F08BF40F07A
:100AF00080407047130C06BF12044FF0100C4FF0EB
:100B0000000C130E04BF12020CF1080C130F04BFEB
:100B100012010CF1040C930F04BF92000CF1020CB3
:100B2000D30F04BF52000CF1010C11464FF000022C
:100B3000A0F11F00A0EB0C00704711F0004F08BFA0
:100B4000704731F000413FF4D5AF0B0C06BF0904EC
:100B50004FF0100C4FF0000C0B0E04BF09020CF10B
:100B6000080C0B0F04BF09010CF1040C8B0F04BF20
:100B700089000CF1020CCB0F04BF49000CF1010CF1
:100B8000CCF12003A0EB0C0022FA03F302FA0CF2E2
:100B900041EA030100F10100704720F07F4C80EA38
:100BA000030023F07F47ACEB070303F57C5300F011
:100BB000004003F1FF032DE980494FEA154B09B4CA
:100BC0004FEA144325EA0B4E24EA03480FF20426A9
:100BD00006EB132749083E785FEA320203FB0667FB
:100BE000C7F5000707FB06F64FEA54374FEAD6462B
:100BF00006F1020607FB066CCCF1005C4FEA1C47CD
:100C00002CEA074C07FB06F40CFB06F504EB154633
:100C10004FEA961634BF00204FF000404FEAD1371C
:100C200006FB07FC4FEA1C4C0CFB0BF7D21B03FB2B
:100C30000CF761EB07010CFB0EF7B0EB074072EB12
:100C400017420CFB08F734BFA2EB0742B2EB074296
:100C500061EB17414FEA0C444FEA910706FB07FC92
:100C60004FEA1C4C0CFB0BF7B0EBC74072EB573252
:100C700003FB0CF734BFA2EBC742B2EBC74261EBF8
:100C800057310CFB0EF7B0EBC70072EB57720CFB41
:100C900008F734BFA2EBC702B2EBC70261EB577192
:100CA000039F4FEA816141EA921104EBCC044FEAC1
:100CB000D1374FEA826206FB07FC42EA90124FEA04
:100CC00080604FEA1C4C0CFB0BF7D21B03FB0CF7AC
:100CD00061EB07010CFB0EF7B0EB074072EB17421C
:100CE0000CFB08F734BFA2EB0742B2EB074261EB03
:100CF00017414FEA8C554FEA910704EB9C2406FB01
:100D000007FC4FEA1C4C0CFB0BF7B0EBC74072EB37
:100D1000573203FB0CF734BFA2EBC742B2EBC7421A
:100D200061EB57310CFB0EF7B0EBC70072EB57725B
:100D30000CFB08F734BFA2EBC702B2EBC70261EBB2
:100D4000577115EB4C254FEA816141EA92114FEA48
:100D500082624FEAD13742EA901206FB07FC44F167
:100D600000044FEA80604FEA1C4C0CFB0BF7D21BCF
:100D700003FB0CF761EB07010CFB0EF7B0EB074030
:100D800072EB17420CFB08F734BFA2EB0742B2EB41
:100D9000074261EB174115EB1C154FEA813141EA1F
:100DA00092414FEA823242EA90424FEA80304FEA63
:100DB0000C7644F1000448EA03434EEA0B484FF036
:100DC000000EB2EB080C71EB030724BF62463946F4
:100DD0004EEB0E0E4FF0000B0018524149414BEB09
:100DE0000B0BB2EB080C71EB03077BF1000B24BF7C
:100DF000624639464EEB0E0E4FF0000B0018524182
:100E000049414BEB0B0BB2EB080C71EB03077BF189
:100E1000000B24BF624639464EEB0E0E51EA020724
:100E200018BF46F0010616EB0E7655F1000254F19C
:100E3000000103D5BDE88901BDE80088BDE889014E
:100E4000BDE80048B619524141EB0101A3F101038D
:100E5000704780807F7E7D7C7B7A79787776767527
:100E60007473727171706F6E6E6D6C6C6B6A6A699F
:100E70006868676666656464636362616160605F39
:100E80005F5E5E5D5D5C5C5B5B5A5A5959585857B2
:100E9000575656555555545453535252525151501A
:100EA00050504F4F4F4E4E4D4D4D4C4C4C4B4B4B6D
:100EB0004A4A4A49494948484847474747464646B3
:100EC00045454544444444434343434242424241EE
:100ED0004141002B9C4630D477002BD01CB54FEA03
:100EE000370703B44FF010004FF01001BAF1000FB4
:100EF00006D0BCF1000FDCBF40F0080040F0080154
:100F00004FF000000FBCBDE810400BF1010BBBF12E
:100F1000010F08BF5FEA170722BF12F1010211F1AA
:100F200001014FF0004143F1000300F0004043EAAB
:100F300000007047F9D35708D0E746EA064613F198
:100F4000400F4FEA16461FDD13F1200FDFBF164397
:100F50000A46002120335B42BED0C3F1200746EA97
:100F6000064602FA07F74FEA164646EA0706C3F1B5
:100F7000200722FA03F201FA07F721FA03F14FF0F2
:100F8000000342EA0702A7E746EA020646EA0646E7
:100F90004FEA164646EA0106BCBF46EA0646360C4C
:100FA0004FF000034FF000024FF0000194E72DE9ED
:100FB000804C9A46934670B491E8380007C831EAED
:100FC000400C48BF34EA430C03D5FFF7E6FDFFF7BA
:100FD00080FFF0BCBDE8008C2DE9804C9A4693461A
:100FE00070B491E8380007C810F0804F08BF13F0C4
:100FF000804F03D100F005F8FFF76BFFF0BCBDE8B0
:10100000008C20F07F4780EA030023F07F4C07EB41
:101010000C03A3F57C5300F00040A3F1FE0392F013
:10102000000F00F0B38095F0000F00F077802DE9FD
:1010300001494FEA11404FEA144621EA004800FBFB
:1010400006FC24EA064708FB06F607FB08F800FB47
:1010500007F718EB06484CEB164C4FEA124B18EB0F
:1010600007484FEA15464CEB174022EA0B4E0BFBA4
:1010700006FC25EA06470EFB06F607FB0EFE0BFBF9
:1010800007F71EEB064E4CEB164C4FF000061EEB1E
:10109000074E4CEB174B18EB0B0840F1000018EB18
:1010A0000E0B58EB000840F100008F1A4FF00001C2
:1010B0003CBFC943661B14BFB5EB040C00213CBF09
:1010C000C943F61B4FEA17444EEA8E0E27EA044541
:1010D0004FEA1C4704FB07622CEA074C05FB07F7A5
:1010E0000CFB05F604FB0CFC16EB074642EB174223
:1010F00016EB0C4642EB1C421BEB060658EB0202B9
:10110000414146EA9E0601D5BDE80189B619524122
:1011100041EB0101A3F10103BDE801894FEA144548
:101120004FEA114724EA054621EA074C05FB07F47C
:1011300006FB07F70CFB06F105FB0CFC11EB074166
:1011400044EB17444FEA124711EB0C4144EB1C44AB
:1011500022EA074C05FB07F206FB07F70CFB06F635
:1011600005FB0CFC16EB074642EB174216EB0C4650
:1011700042EB1C456A1854F1000148BF7047B6198C
:10118000524141EB0101A3F10103704795F0000FBB
:1011900037D04FEA11424FEA144721EA024624EAC7
:1011A000074C02FB07F106FB07F70CFB06F402FBFA
:1011B0000CFC14EB074441EB17414FEA154714EBC5
:1011C0000C4441EB1C4125EA074C02FB07F506FBEA
:1011D00007F70CFB06F602FB0CFC16EB074645EB8B
:1011E000174516EB0C4645EB1C42121951F1000154
:1011F00048BF7047B619524141EB0101A3F1010309
:1012000070474FEA14454FEA114724EA054621EAA0
:10121000074C05FB07F106FB07F70CFB06F24FF046
:10122000000605FB0CFC12EB074241EB174112EBE9
:101230000C4251EB1C4148BF7047921841EB010131
:10124000A3F101037047000010B50A48006840F0A0
:10125000010008490860084800680849086008A0BB
:1012600000F0C2FA002000E0401C07498842FBDB86
:1012700010BD0000140401400C000020342C01407B
:10128000535441525400000040420F0010B54FF03B
:101290009040006840F6FF4188434FF0904108605D
:1012A0000846C06840F2667188434FF09041C860BC
:1012B0000846C06840F6AA0108434FF09041C86054
:1012C0001D48806820F007001B4988600846806838
:1012D00088601A48006840F0010018490860174803
:1012E0000C38006840F0010014490C3908600620F1
:1012F00000280DDB00BF00BF00F01F02012191405C
:101300004209920002F1E022C2F8001100BF00BFC2
:1013100000BF06200021002804DB0A07130E084A3C
:10132000135406E00A07140E064A00F00F031B1FB1
:10133000D45400BF10BD0000000001400C04014067
:1013400000E400E018ED00E01848C06C40F0080030
:101350001649C8641648006820F400401449086023
:101360000846006840F48040086011480830006872
:1013700040F400400E49083108600846006840F417
:1013800080400860081D006820F40040091D0860C6
:101390000846006820F48040086005481430006862
:1013A00040F080000249143108607047001002408C
:1013B000000C004870B58AB004460D46164645F04C
:1013C000C00001900F48006820F080000D490860BF
:1013D0000A2001F039F8012302AA01A90A4801F004
:1013E000E8F832462146084801F0C4F80A2001F026
:1013F0002BF80448006840F08000024908600AB0F9
:1014000070BD0000140C00480038004037B588B0AB
:1014100005461446012C04DD9DF8240040F04000F0
:1014200009901048006820F080000E4908600A20EA
:1014300001F00AF801236A4609A90B4801F0B9F83E
:1014400023466A462946084801F0B3F80A2000F00E
:10145000FBFF0448006840F08000024908600BB0C0
:1014600030BD0000140C00480038004010B507489B
:10147000006E40F001000549086600F029FF00F009
:10148000EFFFFFF761FF00F003F810BD001002400E
:1014900008B51F200090012220216846FFF7B6FF03
:1014A00020200090012223216846FFF7AFFF08BDEE
:1014B000002000BF0B49096801F004010029F9D19F
:1014C000002006E0002207490C3141F82020411C91
:1014D000C8B20F28F6DD0349096841F00401014A4A
:1014E00011607047082400402F48806D00F0805044
:1014F00028B92D48806D40F080502B4988652A48D6
:10150000806D2A48006800F4807060B92748006840
:1015100040F480702549086000BF2448006800F44A
:1015200080700028F9D020489030006820F0050035
:101530001D49C1F890000846D0F8900040F4803072
:10154000C1F890000846D0F8900020F48030C1F82F
:10155000900007E014489030006840F00100124904
:10156000C1F8900010489030006800F00200002898
:10157000F0D00D489030006820F440700A49C1F85E
:1015800090000846D0F8900040F48070C1F89000B8
:101590000846806D20F0805088650846806D40F4D4
:1015A0000070886570470000001002400070004025
:1015B0003E48006820F001003C490860081D0068B2
:1015C00040F47010091D08600846006820F0707033
:1015D00008600846006820F440300860084600684B
:1015E00020F4604008600846006840F480400860CD
:1015F0000846006840F0700008600846006820F463
:10160000E05008600846006840F4A05008600846B2
:10161000006820F0700008600846006840F0400054
:10162000086000BF21480830006800F02000002852
:10163000F8D01E48006820F01C001C4908600846CD
:10164000006840F00C0008600846006820F0600068
:1016500008600846006840F04000086008460068DE
:1016600020F0800008600846006820F00200086052
:101670000846006840F00100086000BF0B480830D1
:10168000006800F001000028F8D000BF07480830CB
:10169000006800F010000028F8D004480830006806
:1016A00040F0040001490831086070470024004000
:1016B000F0B50C4615460021002600220778342F8D
:1016C00053D00FDCA7F12007142F5AD2DFE807F020
:1016D0002359595959435959282A253B5938593EB4
:1016E000494A4B4C642F1FD008DCA7F13507052F62
:1016F00047D2DFE807F03B3C3D3E3F00B02F27D00C
:1017000004DC6D2F13D06E2F3BD113E0B52F14D016
:10171000FF2F36D122E000214CE04AF2DD0149E002
:10172000282147E0112145E04FF4734142E04BF29C
:1017300010213FE042F210213CE046F2840139E002
:101740004FF4204136E04AF2140133E0C02131E089
:101750004FF46C412EE04FF433412BE04FF6DD7136
:1017600028E000BF00BF00BF00BF00BF00BF00BF38
:1017700000BF00BF0778303FDFF864C03CF81710A7
:1017800018E007785B2F08DA0778402F05DD077827
:10179000413FDFF850C03CF8171007787B2F08DA7C
:1017A0000778602F05DD0778613FDFF838C03CF827
:1017B000171000BF00BF0CB141F002010DB141F0A4
:1017C00020010C26002208E041FA06F707F00F0777
:1017D0009F54371FFEB2571CFAB2042AF4DBF0BD47
:1017E000642D0008302D00082DE9F0410446002545
:1017F0000026002720E060783A2801D1012600E089
:10180000002660782E2801D1012700E000270EB1C4
:10181000012000E0002002460FB1012000E000207E
:1018200001462B46204600F0F1F8641C06B1641C0A
:1018300007B1641C681CC5B2207808B1062DDADB3C
:10184000BDE8F08100B500F007F8FFF74DFEFFF7A7
:10185000AFFEFFF72DFE00BD5E48C06C40F00F00EC
:101860005C49C8644FF0904000685B4908404FF005
:101870009041086008460068584908434FF090417D
:1018800008600846006A40F03B4008620846406A2B
:10189000534908434FF090414862084680684E49DA
:1018A00008404FF090418860084680684B490843E3
:1018B0004FF0904188600846C068474908404FF0A3
:1018C0009041C8604748006847490840454908605A
:1018D00008460068454908434249086041482030AD
:1018E000006840F0BB103F49203108603D48406A25
:1018F0003F4908433B4948623A48083000683A4942
:1019000008403849083108600846006837490843EC
:10191000344908310860081D0068334908403149DE
:101920000C31086033480068334908403149086089
:1019300008460068314908432E4908602D48203088
:1019400000682F4908432B49203108602948406A24
:1019500040F00B01274841622648083000682649BC
:1019600008402449083108600846006823490843B4
:10197000204908310860081D00681F4908401D49BA
:101980000C3108601F48006880B21E490860084694
:1019900000681D4908431B4908600846406A40F03A
:1019A000BB31184841621748083000686FF30F00D8
:1019B0001449083108600846006813490843114972
:1019C00008310860081D00686FF30F00091D0860EA
:1019D0007047000000100240FF0FC03F00A02A80A7
:1019E000BB0B00B000040048F0F0F3000A0A08AA9C
:1019F000B000BBBB000800483F00FCFF80AA02000B
:101A000000B0BBBB000C00480000AAAAF8B5054610
:101A10000E4617461C466B463A4631462846FFF7A7
:101A200047FE00BFFE48006800F004000028F9D11E
:101A3000062C7DD2DFE804F00398FCFBFAF9F848A5
:101A40000C300068F7490840F5490C310860F4484B
:101A50000838C069F3490840F1490839C8610846A7
:101A6000406AF0490840EE49083948620846C06AB1
:101A7000EC490840EA490839C8629DF80000C007EF
:101A8000C00E9DF80010C1F3400140EAC1509DF81E
:101A90000010C1F3800140EA81509DF80010C1F3AD
:101AA000C00140EAC100DE490C3109680843DC4945
:101AB0000C3108609DF80100C007C00E9DF80110B0
:101AC000C1F3400140EAC1509DF80110C1F380010B
:101AD00040EA81509DF80110C1F3C00140EAC10005
:101AE000CF490839C9690843CD490839C8619DF80B
:101AF0000200C007C00E9DF80210C1F3400140EA89
:101B0000C1509DF80210C1F3800140EA81509DF858
:101B10000210C1F3C00140EAC100C1490839496A55
:101B20000843BF49083948629DF80300C00700E038
:101B30002EE3C00E9DF80310C1F3400140EAC150EE
:101B40009DF80310C1F3800140EA81509DF8031015
:101B5000C1F3C00140EAC100B1490839C96A08436C
:101B6000AF490839C86214E3AD480C30006843F24D
:101B700060018843AA490C310860A9480838C06947
:101B800043F260018843A6490839C8610846406AA3
:101B900043F260018843A249083948620846C06A96
:101BA00043F2600188439E490839C8629DF80000ED
:101BB000C007400E9DF80010C1F3400140EA4130DB
:101BC0009DF80010C1F3800140EA01309DF800103B
:101BD000C1F3C00140EA411091490C310968084342
:101BE0008F490C3108609DF80100C007400E9DF838
:101BF0000110C1F3400140EA41309DF80110C1F3EA
:101C0000800140EA01309DF80110C1F3C00140EAB3
:101C1000411083490839C969084381490839C861B5
:101C20009DF80200C007400E03E028E27CE1CAE014
:101C300036E09DF80210C1F3400140EA41309DF8C2
:101C40000210C1F3800140EA01309DF80210C1F397
:101C5000C00140EA411072490839496A0843704995
:101C6000083948629DF80300C007400E9DF8031034
:101C7000C1F3400140EA41309DF80310C1F38001F7
:101C800040EA01309DF80310C1F3C00140EA411061
:101C900063490839C96A084361490839C86278E26A
:101CA0005F480C300068604908405D490C310860AD
:101CB0005B480838C0695C49084059490839C8611F
:101CC0000846406A5849084055490839486208465C
:101CD000C06A5549084052490839C8629DF8000059
:101CE000C007000C9DF80010C1F3400140EA4170AC
:101CF0009DF80010C1F3800140EA01709DF80010CA
:101D0000C1F3C00140EA813045490C3109680843FC
:101D100043490C3108609DF80100C007000C9DF894
:101D20000110C1F3400140EA41709DF80110C1F378
:101D3000800140EA01709DF80110C1F3C00140EA42
:101D4000813037490839C969084335490839C861BC
:101D50009DF80200C007000C9DF80210C1F340017D
:101D600040EA41709DF80210C1F3800140EA017021
:101D70009DF80210C1F3C00140EA813028490839BA
:101D8000496A08432649083948629DF80300C0079C
:101D9000000C9DF80310C1F3400140EA41709DF82A
:101DA0000310C1F3800140EA01709DF80310C1F3F4
:101DB000C00140EA81301A490839C96A0843184904
:101DC0000839C862E5E116480C30006820F0404050
:101DD00013490C31086012480838806920F003016B
:101DE0000F4808388161C06920F040410C4808382C
:101DF000C161006A20F00301094808380162406AA5
:101E000020F04041064808384162806A20F0030112
:101E1000034808388162C06A20F04041004805E06C
:101E200008240040E7FF3FFFFF3FFFCF0838C162B3
:101E3000006B20F00301DC4801639DF80000C0073F
:101E40009DF80010C1F3C00140EA8170D6491431F9
:101E500009680843D449143108609DF80000C0F3B4
:101E600080009DF80010C1F3400140EA4100CE49D6
:101E700089690843CC4988619DF80100C0079DF835
:101E80000110C1F3C00140EA8170C749C969084324
:101E9000C549C8619DF80100C0F380009DF801109C
:101EA000C1F3400140EA4100BF49096A0843BE4905
:101EB00008629DF80200C0079DF80210C1F3C0013E
:101EC00040EA8170B849496A0843B74948629DF8B9
:101ED0000200C0F380009DF80210C1F3400140EA07
:101EE0004100B149896A0843AF4988629DF80300FF
:101EF000C0079DF80310C1F3C00140EA8170AA49F0
:101F0000C96A0843A849C8629DF80300C0F380006D
:101F10009DF80310C1F3400140EA4100A249096B5A
:101F20000843A149086334E19F481430006820F059
:101F300040709D49143108609B48806920F00C0175
:101F400099488161C06920F040719748C161006A79
:101F500020F00C0194480162406A20F040719248E0
:101F60004162806A20F00C018F488162C06A20F0D3
:101F700040718D48C162006B20F00C018A480163FA
:101F80009DF80000C0F3400040069DF80010C1F32A
:101F9000800140EA0160844914310968084382499C
:101FA000143108609DF80000C007000F9DF8001074
:101FB000C1F3C00140EA81007B49896908437A493D
:101FC00088619DF80100C0F3400040069DF80110B3
:101FD000C1F3800140EA01607349C969084372494D
:101FE000C8619DF80100C007000F9DF80110C1F302
:101FF000C00140EA81006C49096A08436A490862E5
:102000009DF80200C0F3400040069DF80210C1F3A5
:10201000800140EA01606449496A084362494862B4
:102020009DF80200C007000F9DF80210C1F3C00127
:1020300040EA81005C49896A08435B4988629DF8EF
:102040000300C0F3400040069DF80310C1F3800177
:1020500040EA01605449C96A08435349C8629DF87F
:102060000300C007000F9DF80310C1F3C00140EA50
:1020700081004D49096B08434B49086389E04A4890
:1020800014300068494908404749143108604648FF
:10209000C069464908404449C8610846406A434906
:1020A0000840414948620846C06A404908403E49E4
:1020B000C8629DF80000C007800B9DF80010C1F3B6
:1020C000400140EA01209DF80010C1F3800140EA80
:1020D00041209DF80010C1F3C00140EA81603249FF
:1020E0001431096808433049143108609DF8010033
:1020F000C007800B9DF80110C1F3400140EA0120A8
:102100009DF80110C1F3800140EA41209DF80110C3
:10211000C1F3C00140EA81602349C96908432249EB
:10212000C8619DF80200C007800B9DF80210C1F342
:10213000400140EA01209DF80210C1F3800140EA0D
:1021400041209DF80210C1F3C00140EA81601649A8
:10215000496A0843144948629DF80300C007800B90
:102160009DF80310C1F3400140EA01209DF80310DF
:10217000C1F3800140EA41209DF80310C1F3C00182
:1021800040EA81600849C96A08430749C86200E01B
:1021900000BF00BF04480830006840F00400024956
:1021A00008310860F8BD000000240040FFFCFDFB82
:1021B0004448C06C40F010004249C8640846006EB4
:1021C00040F4006008664048006820F480303E49D2
:1021D00008600846006840F40030086008468068DF
:1021E00040F4803088600846806840F400308860A1
:1021F0000846C06820F48030C8600846C06820F4F3
:102200000030C8600846406A40F001012E48416233
:10221000406A20F002012C484162406A20F004012B
:1022200029484162406A20F0080127484162274856
:10223000006820F010002549086041F63F702349EE
:1022400028310860C720091D086000201F4934316B
:1022500008601E481830006820F010001B49183133
:1022600008600846006840F02000086008460068E2
:1022700040F0400008600846006820F480300860A4
:102280000846006840F008000860104820300068E8
:1022900020F008000D49203108600846006840F031
:1022A0000400086009484430006840F400400749D1
:1022B000443108600548006840F0010003490860A7
:1022C000704700000010024000100048002C014040
:1022D0005B48C06C40F008005949C8645948006820
:1022E00040F00800574908600846006820F00400E4
:1022F00008600846006840F08000086008460068F2
:1023000020F0400008600846006840F40070086053
:102310000846006820F4807008604A482030006851
:1023200020F080004749203108600846006840F0EE
:10233000400008600846006820F020000860084659
:10234000006840F0100008600846006820F4004073
:1023500008600846006840F480400860084600684D
:1023600020F4005008600846006840F4805008607F
:102370000846006820F4002008600846006840F421
:10238000802008600846006820F400300860084695
:10239000006840F4803008602A480830006840F047
:1023A00008002849083108600846006840F0040029
:1023B00008600846006840F0800008600846006831
:1023C00040F0400008600846006840F40070086073
:1023D0000846006840F480700860081F006820F01C
:1023E0000200091F08600846006820F00800086025
:1023F0000846006820F01000086012480C300068A1
:1024000020F008000F490C3108600846006820F0F1
:10241000040008600846006820F080000860084654
:10242000006820F0400008600846006820F4007052
:1024300008600846006820F480700860704700005B
:1024400000100240000C0048002105E0002200E0DE
:10245000521C122AFCD3491C8142F7D3704700005A
:102460004248806D40F48040404988650846806B52
:1024700040F4804088630846806B20F48040886385
:102480003B48006820F04000394908600846006871
:1024900020F4806008600846006820F4004008606E
:1024A0000846006820F4804008600846006820F074
:1024B00080000860081D006820F40060091D0860A5
:1024C0000846006840F4806008600846006840F4F0
:1024D000007008600846006840F480700860084694
:1024E000006820F010000860081F006820F002005B
:1024F000091F08600846006820F0010008600846CF
:10250000006820F0200008600846006840F01000D5
:1025100008600846006840F0080008600846006847
:1025200020F4005008600846006840F0040008608D
:102530000846006840F400700860081D006840F01C
:102540000800091D0860081F006840F48070091F1A
:102550000860081D006840F48050091D0860081FCD
:10256000006840F04000091F0860704700100240FA
:102570000038004010B50B46002100BF10E000BF3E
:10258000846804F00204022CFAD15C5C047300BF7E
:10259000846804F00104002CFAD0047B5C54491CCC
:1025A0009142ECDB00BF846804F08004802CFAD0F8
:1025B00010BD30B50C46002100BF10E000BF85689B
:1025C00005F00205022DFAD1655C057300BF856830
:1025D00005F00105002DFAD0057B5554491C9942A0
:1025E000ECDB00BF856805F08005802DFAD030BD9A
:1025F00002480068401C014908607047080000203C
:1026000010B500204FF0E02108611D48486100200E
:102610008861401E0121002804DB0A07130E194AB5
:10262000135406E00A07140E174A00F00F031B1F8D
:10263000D45400BF4FF0FF3000280DDB00BF00BFB7
:1026400000F01F02012191404209920002F1E022B4
:10265000C2F8001100BF00BF00BF4FF0E0200069CA
:1026600040F002004FF0E02108610846006940F0A8
:10267000040008610846006940F00100086110BDCF
:102680007F38010000E400E018ED00E05E490968D1
:1026900021F007015C4A11601146096841F002010E
:1026A00011605A49096841F48071584A116000BFAD
:1026B0005649096801F480610029F9D01020534976
:1026C000496821F0F851514A51601146496841EA80
:1026D000006151601146096821F08071116000BFEE
:1026E0004A49096801F00071B1F1007FF8D047490B
:1026F000C96821F00301454AD1601146C96841F01B
:102700000201D1601146C96821F4FE4141F4A05193
:10271000D1601146C96821F0700141F01001D1600B
:102720001146C96821F0C061D1601146C96841F005
:102730008071D1601146096841F08071116000BF5D
:102740003249096801F000710029F9D02F498968E0
:1027500021F003012D4A91601146896841F003017F
:10276000916000BF2949896801F00C010C29F9D159
:102770002649896821F0F001244A91601146896850
:1027800021F4E06191601146896821F46051916003
:102790001146096821F08061116000BF1B4909687A
:1027A00001F08061B1F1806FF8D01849096921F416
:1027B000FE41164A11611146096941F4C051116187
:1027C0001146096941F4003111611146096941F46A
:1027D000803111611146096841F08061116000BFCC
:1027E0000A49096801F080610029F9D00749883158
:1027F000096821F44001054AC2F888101146096EA3
:1028000041F40011116670470020024000100240A0
:102810003F48C06C40F008003D49C8643D4800682E
:1028200040F400603B4908600846006820F480607E
:1028300008600846006840F40050086008460068D8
:1028400020F48050086033482030006820F40000F5
:102850003049203108600846006840F48000086074
:102860000846006840F4001008600846006840F41C
:10287000801008600846006820F000600860084684
:10288000006840F0806008600846006840F0007012
:1028900008600846006840F0807008601D480830F5
:1028A000006840F400601B49083108600846006871
:1028B00040F4806008600846006840F400500860FA
:1028C0000846006840F480500860081F006820F047
:1028D0002000091F08600846006820F040000860DA
:1028E0000C480C30006820F400600A490C31086084
:1028F0000846006840F4806008600846006820F4DC
:10290000005008600846006840F480500860704736
:1029100000100240000C00480A48806D40F400306E
:102920000849886507488830006820F00800C1F829
:1029300088000846D0F8880040F00400C1F88800FC
:102940007047000000100240642242430723B2FB9C
:10295000F3F100BF4A1E111EFCD17047016821F03F
:1029600001010160016821F080510160016821F4DA
:1029700080510160016821F400410160416821F447
:1029800000514160416821F48051416042F28D0163
:10299000C160016841F008010160016841F0040173
:1029A0000160016841F0010101607047F0B5044623
:1029B0000E46174600250CE000BFE06900F08000DD
:1029C0000028FAD0705D20854FF49670FFF7BCFFA9
:1029D0006D1CBD42F0D300BFE06900F0400000284C
:1029E000FAD0E06920F04000E061F0BD03B4019846
:1029F0004100009850EAC12018BF04204A0D18BFBA
:102A000040F0010040F2FF72B2EB515F08BF40F0AE
:102A10000200012808BF052002B07047054A11686E
:102A200000BF044A1268521A8242FAD30022014BB4
:102A30001A6070470800002038B504460D46E0B221
:102A40000090012269460248FFF7B0FF204638BDDA
:102A5000004400402DED088B88B0FFF717FEFFF70C
:102A6000CFFDFEF703FDFEF7EDFEFEF721FDFFF7BC
:102A700053FFFFF7CDFE5148FFF770FFFFF798FBBC
:102A8000FEF704FC06240C2596E0002004900122A9
:102A9000272104A8FEF78EFC00200390029001225B
:102AA000282103A8FEF786FC0122292102A8FEF7AF
:102AB00081FC9DF80C009DF8081040EA012000B24E
:102AC00008EE100A01222A2103A8FEF773FC012256
:102AD0002B2102A8FEF76EFC9DF80C009DF8081053
:102AE00040EA012000B209EE100A01222C2103A8BD
:102AF000FEF760FC01222D2102A8FEF75BFC9DF889
:102B00000C009DF8081040EA012000B209EE900A7E
:102B10009FED2B0AF0EE408AB8EEC80A28EE800A34
:102B200010EE101A084600F08BF841EC1A0B9DEDE0
:102B3000050A10EE101A084600F082F841EC1B0B53
:102B40008DED00AB53EC1B2B1EA0FDF7BBFB9DEDE9
:102B5000050AF8EEC80A08EEE00ADFED230AB4EE33
:102B6000E00AF1EE10FA0CDD20A0FDF7ABFB2148E6
:102B700004601EA0FEF738FE40F6B830FFF74EFFA7
:102B800007E01DA0FDF79EFB1A4805601CA0FEF79C
:102B90002BFEB8EEC80A28EE800A8DED050AB8EEC5
:102BA000C90A28EE800A8DED060AB8EEE90A28EE79
:102BB000800A8DED070A00BF67E70000004400406F
:102BC000295C8F3D446966666572656E63653A206F
:102BD00070726576696F75733A2025662C206E6574
:102BE000773A2025660A00000000484253544152BB
:102BF00054000000342C014053746F70000000003A
:102C000053544F502020200010B500290AD00878D6
:102C1000002807D005487844FDF706FF002801D0BA
:102C2000002010BD0248784410BD000016020000CC
:102C30000E0200000808A0F500114FEA31017047AC
:102C400043004FEAD30C4FEA3C0C43401FBF400700
:102C50000CF1605113F0FE4F70471CF0006F03D170
:102C600000200CF0004170470CF0004343EA507024
:102C700010B540EACC0000F00EF800BF0000009252
:102C80004FEA0001FFF7D6BF4FF000414FF00000C0
:102C9000A1F5002170470EF1020E2EF0030E5EF832
:102CA000044B244204D44FEA4102B2F17F4F11D8C1
:102CB0004FEA4003B3F17F4F0CD80ED14FEAD07CDE
:102CC000B2F17F4F0CEB4C0C0CF1020C08BF4CEB3B
:102CD000D17C04E04FF0080C01E04FEAD17C0CEB12
:102CE0004C0324FA03F404F00704B4F1040C06D2F4
:102CF0000EEB840CBDE810404CF0010C6047DFE89F
:102D00000CF0070802024FF00040A0F5800010BD53
:102D10000846420018BFD2F1807288BF00F0004020
:102D200010BD4FF04070E1EE100A7047FDF7E6BBB2
:102D300000FE1467001D1447009D009C003F00FA30
:102D40001400005341980019485A095A005F00FCCA
:102D5000015F01FC00AF1404005BC018815AC90078
:102D60005800C005005F004200F5006700EA00AFB0
:102D700000BF004600FF00EF02400000000000A07E
:102D80000000000005400000000000C80000000036
:102D90000C4000000000409C0000000019400000B2
:102DA0000020BCBE0000000034400000BFC91B8EE4
:102DB00000000004B5400000504BCFD06607E2CFC2
:102DC000010000006C4100003E8251AADFEEA734F2
:102DD00001000000D9420000DCB5A0E23A301F97A4
:102DE000FFFFFFFFB4450000FD25A0C8E9A3C14FC8
:102DF000FFFFFFFFFF3F0000000000800000000019
:102E0000FF3F00000000008000000000482E000886
:102E10000000002014000000C40100085C2E00081F
:102E20001400002064060000E00100081C000000FF
:102E300043000000F8FFFFFF0C0000000E00000040
:102E40000F0000002E000000000000000000000045
:0C2E500000000000060000000C00000064
:040000050800018965
:00000001FF
