:020000040800F2
:1000000068060020310200086D0200086F02000837
:100010007102000873020008750200080000000069
:10002000000000000000000000000000770200084F
:1000300079020008000000007B0200087D02000831
:100040007F0200087F0200087F0200087F0200088C
:100050007F0200087F0200087F0200087F0200087C
:100060007F0200087F0200087F0200087F0200086C
:100070007F0200087F0200087F0200087F0200085C
:100080007F0200087F0200087F0200087F0200084C
:100090007F0200087F0200087F0200087F0200083C
:1000A0007F0200087F0200087F0200087F0200082C
:1000B0007F0200087F0200087F0200087F0200081C
:1000C0007F0200087F0200087F0200087F0200080C
:1000D0007F0200087F0200087F0200087F020008FC
:1000E0007F0200087F0200087F0200087F020008EC
:1000F0007F0200087F0200087F0200087F020008DC
:100100007F0200087F0200087F0200087F020008CB
:100110007F0200087F0200087F0200087F020008BB
:100120007F0200087F0200087F0200087F020008AB
:100130007F0200087F0200087F0200087F0200089B
:100140007F0200087F0200087F0200087F0200088B
:100150007F0200087F0200087F0200087F0200087B
:100160007F0200087F0200087F0200087F0200086B
:100170007F0200087F0200087F02000800000000E4
:100180007F0200087F02000800F002F800F041F84A
:100190000AA090E8000C82448344AAF10107DA45E2
:1001A00001D100F036F8AFF2090EBAE80F0013F0F3
:1001B000010F18BFFB1A43F0010318478815000010
:1001C000A8150000103A24BF78C878C1FAD85207A1
:1001D00024BF30C830C144BF04680C6070470000C1
:1001E0000023002400250026103A28BF78C1FBD840
:1001F000520728BF30C148BF0B607047642900F028
:10020000A180002070471FB501F072FA1FBD10B524
:1002100010BD00F0EBF91146FFF7F5FF01F01CFAF5
:1002200000F009FA03B4FFF7F2FF03BC00F010FA84
:1002300016481749174B99423CBF50F8042B41F818
:10024000042BF8D314494FF000028B4238BF43F817
:10025000042BFAD3DFF84400016841F47001016017
:10026000BFF34F8FBFF36F8F0D480047FEE7FEE7E8
:10027000FEE7FEE7FEE7FEE7FEE7FEE7FEE7FEE756
:1002800008480949094A0A4B7047000064170008EA
:1002900000000020080000206806002088ED00E033
:1002A000890100086800002068060020680200201C
:1002B000680200200FB4044910B503AA029800F0A8
:1002C0007FF910BC5DF814FB000000200FB41CB5D2
:1002D000074B06AA7B4469460090059800F057F941
:1002E0000020694600F066F91CBC5DF814FB0000B4
:1002F000DD02000070B5044685690068C10601D5BD
:10030000302600E02026C00707D070BDD4E90121C7
:1003100030469047206A401C20626D1EF6D570BDA5
:1003200070B5044685690078C00707D170BDD4E96F
:10033000012120209047206A401C20626D1EF6D5C6
:1003400070BD00002DE9F0410646002410687529B3
:10035000314616A510D0AFF30080002802DA4042E3
:1003600013A507E031688A0701D512A502E0490705
:1003700004D511A5012401E0AFF3008000210A2279
:1003800006F1240709E0B0FBF2FCB0FBF2F302FB3C
:100390001C00303078541846491C0028F3D12346FD
:1003A0002A463046BDE8F04100F092B80000000057
:1003B0002D0000002B000000200000002DE9F04778
:1003C0004FF0000A89460446C0F820A02046E168A4
:1003D0008847002876D0252806D0D4E90121904707
:1003E000206A401C2062F1E7E1682046002588472A
:1003F000C4F81CA006460027C4F818A02A2E09D06D
:10040000304601F013F938B304EB8708303EC8F8E2
:10041000186019E059F8041B204604EB870291612B
:10042000E1688847012F064618D1E069002820DAE4
:1004300025F020051DE0D8F8180000EB800006EB41
:1004400040003038C8F818002046E1688847064662
:1004500001F0ECF80028EED1012F0AD02E2E08D1A1
:100460002046E16888477F1C0646022F45F020059C
:10047000C4DBA069002803DA404245F00105A06111
:10048000E80701D025F01005B6B1A6F14100192802
:1004900002D8203645F400654A463146204625609C
:1004A0004D46FFF7ABFE58B1012806D0ED1D25F0F3
:1004B000070000F1080989E704E005F1040985E770
:1004C00030468AE7206ABDE8F0877047704770477A
:1004D0002DE9F0470D4699469246044600F124085E
:1004E0000168880604D5E06921F01001216000E070
:1004F0000120A84201DD471B00E00027A1697A190D
:1005000002EB0900081AA0612078C00602D4204638
:10051000FFF7F0FE002608E0D4E901211AF80600F2
:100520009047206A401C761C20624E45F4DB207800
:10053000C0060AD52046FFF7DDFE06E0D4E901211A
:1005400030209047206A401C2062381EA7F1010726
:10055000F4DC07E0D4E9012118F805009047206A8F
:10056000401C2062281EA5F10105F3DC2046FFF7A0
:10057000D7FE2078000602D50220BDE8F0870120D2
:10058000FBE7000001694A1C02610878704700B56A
:100590008FB0CDE901310021059105497944CDE9BC
:1005A000031011466846FFF709FF0FB000BD0000B9
:1005B000E5FFFFFF0A6802F8010B0A6070470000C0
:1005C000074B70B50D467B44FFF7E1FF0446284614
:1005D00000F008F810B14FF0FF3070BD204670BD3C
:1005E00073100000007B00F080007047754600F03B
:1005F0002BF8AE4605006946534620F007008546B5
:1006000018B020B5FFF73CFEBDE820404FF00006D3
:100610004FF000074FF000084FF0000B21F00701EA
:10062000AC46ACE8C009ACE8C009ACE8C009ACE82D
:10063000C0098D46704710B50446AFF300802046D0
:10064000BDE81040FFF7EEBD0048704708000020ED
:1006500001491820ABBEFEE72600020070470000EB
:100660003F48C06C40F002003D49C8643D48006806
:1006700040F400503B4908600846006820F4805070
:1006800008600846006840F40040086008460068BA
:1006900020F48040086033482030006820F000607B
:1006A0003049203108600846006840F080600860EA
:1006B0000846006820F0007008600846006820F0D6
:1006C000807008600846006820F000400860084616
:1006D000006840F0804008600846006820F0005044
:1006E00008600846006820F0805008601D48083007
:1006F000006840F400501B49083108600846006853
:1007000040F4805008600846006840F400400860EB
:100710000846006840F480400860081F006840F008
:100720004000091F08600846006840F0800008602B
:100730000C480C30006820F400500A490C31086065
:100740000846006840F4805008600846006820F4BD
:10075000004008600846006840F480400860704728
:1007600000100240000400485221364A926D42F4C3
:100770000012344B9A65334A8832126822F40052D0
:10078000C3F888201A46D2F8882042F48052C3F871
:1007900088201A46926B42F400129A631A46926BB2
:1007A00022F400129A63284A126822F48052264BDF
:1007B0001A601A46126822F470621A601A461268A9
:1007C00042F080021A601A46126822F400321A605F
:1007D0001A1D126822F400621B1D1A601A46126864
:1007E00042F000721A601A46126842F400421A601F
:1007F000002040F0704040F4700040F4702040F45D
:100800007F4040F0FF00104A103210601A1D12683D
:1008100022F400421B1D1A601A46126822F48062FC
:100820001A601A4612680A431A601A46126842F49D
:1008300000421A60044A126842F00102024B1A6038
:100840007047000000100240005400402DE9F041C4
:100850000446884617461D46002D00DD1FB94FF09F
:10086000FF30BDE8F081204600F08BF801232A46D6
:100870004146204600F05CF8002608E000BFA06971
:1008800000F004000028FAD0606AB855761CAE4229
:10089000F4DB00BFA06900F040000028FAD0204639
:1008A00000F064F80020DCE72DE9F04104468846BA
:1008B00017461D46002D00DD1FB94FF0FF30BDE883
:1008C000F081204600F05DF800232A46414620468C
:1008D00000F02EF8002802DA4FF0FF30EFE7002694
:1008E0000EE000BFA06900F001000028FAD000BFB0
:1008F000A06900F002000028FAD0B85DA062761C62
:10090000AE42EEDB00BFA06900F0400020B9A06954
:1009100000F010000028F6D0A06900F0100010B11F
:100920004FF0FF30CBE7204600F020F80020C6E76C
:1009300070B504460D46002161680B480140012B4B
:1009400002D141F4806101E021F48061C5F3090026
:100950004FF47F0606EA02463043014341F400515A
:100960006160002070BD0000009800FC416841F407
:100970008041416000BF816901F020010029FAD067
:10098000704700BF816901F40041B1F5004FF9D013
:1009900070470000F0B50C461546002100260022E5
:1009A0000778342F53D00FDCA7F12007142F5AD229
:1009B000DFE807F02359595959435959282A253B4B
:1009C0005938593E494A4B4C642F1FD008DCA7F1D7
:1009D0003507052F47D2DFE807F03B3C3D3E3F009F
:1009E000B02F27D004DC6D2F13D06E2F3BD113E036
:1009F000B52F14D0FF2F36D122E000214CE04AF26F
:100A0000DD0149E0282147E0112145E04FF4734121
:100A100042E04BF210213FE042F210213CE046F26E
:100A2000840139E04FF4204136E04AF2140133E00A
:100A3000C02131E04FF46C412EE04FF433412BE004
:100A40004FF6DD7128E000BF00BF00BF00BF00BF50
:100A500000BF00BF00BF00BF0778303FDFF864C0B1
:100A60003CF8171018E007785B2F08DA0778402F5A
:100A700005DD0778413FDFF850C03CF817100778D4
:100A80007B2F08DA0778602F05DD0778613FDFF8F4
:100A900038C03CF8171000BF00BF0CB141F0020194
:100AA0000DB141F020010C26002208E041FA06F7C2
:100AB00007F00F079F54371FFEB2571CFAB2042AE3
:100AC000F4DBF0BD2E170008FA1600082DE9F041FE
:100AD000044600250026002720E060783A2801D14E
:100AE000012600E0002660782E2801D1012700E0D1
:100AF00000270EB1012000E0002002460FB10120C6
:100B000000E0002001462B46204600F00DF8641C52
:100B100006B1641C07B1641C681CC5B2207808B11A
:100B2000062DDADBBDE8F081F8B505460E4617461E
:100B30001C466B463A4631462846FFF72BFF00BF5E
:100B4000FE48006800F004000028F9D1062C7DD290
:100B5000DFE804F00398FCFBFAF9F8480C30006871
:100B6000F7490840F5490C310860F4480838C06975
:100B7000F3490840F1490839C8610846406AF0491C
:100B80000840EE49083948620846C06AEC49084006
:100B9000EA490839C8629DF80000C007C00E9DF8F8
:100BA0000010C1F3400140EAC1509DF80010C1F3AC
:100BB000800140EA81509DF80010C1F3C00140EA75
:100BC000C100DE490C3109680843DC490C3108607A
:100BD0009DF80100C007C00E9DF80110C1F340014F
:100BE00040EAC1509DF80110C1F3800140EA8150F4
:100BF0009DF80110C1F3C00140EAC100CF49083996
:100C0000C9690843CD490839C8619DF80200C00789
:100C1000C00E9DF80210C1F3400140EAC1509DF89A
:100C20000210C1F3800140EA81509DF80210C1F327
:100C3000C00140EAC100C1490839496A0843BF49B7
:100C4000083948629DF80300C00700E02EE3C00E9B
:100C50009DF80310C1F3400140EAC1509DF8031014
:100C6000C1F3800140EA81509DF80310C1F3C00137
:100C700040EAC100B1490839C96A0843AF49083997
:100C8000C86214E3AD480C30006843F26001884349
:100C9000AA490C310860A9480838C06943F26001CC
:100CA0008843A6490839C8610846406A43F2600192
:100CB0008843A249083948620846C06A43F2600185
:100CC00088439E490839C8629DF80000C007400E5D
:100CD0009DF80010C1F3400140EA41309DF800103A
:100CE000C1F3800140EA01309DF80010C1F3C0015A
:100CF00040EA411091490C31096808438F490C3191
:100D000008609DF80100C007400E9DF80110C1F376
:100D1000400140EA41309DF80110C1F3800140EAF2
:100D200001309DF80110C1F3C00140EA4110834930
:100D30000839C969084381490839C8619DF802002A
:100D4000C007400E03E028E27CE1CAE036E09DF8EF
:100D50000210C1F3400140EA41309DF80210C1F396
:100D6000800140EA01309DF80210C1F3C00140EA61
:100D7000411072490839496A084370490839486284
:100D80009DF80300C007400E9DF80310C1F3400119
:100D900040EA41309DF80310C1F3800140EA013080
:100DA0009DF80310C1F3C00140EA411063490839BE
:100DB000C96A084361490839C86278E25F480C3063
:100DC0000068604908405D490C3108605B4808389C
:100DD000C0695C49084059490839C8610846406AF9
:100DE000584908405549083948620846C06A55497B
:100DF000084052490839C8629DF80000C007000C3D
:100E00009DF80010C1F3400140EA41709DF80010C8
:100E1000C1F3800140EA01709DF80010C1F3C001E8
:100E200040EA813045490C310968084343490C3197
:100E300008609DF80100C007000C9DF80110C1F387
:100E4000400140EA41709DF80110C1F3800140EA81
:100E500001709DF80110C1F3C00140EA81303749AB
:100E60000839C969084335490839C8619DF8020045
:100E7000C007000C9DF80210C1F3400140EA417028
:100E80009DF80210C1F3800140EA01709DF8021044
:100E9000C1F3C00140EA813028490839496A084352
:100EA0002649083948629DF80300C007000C9DF8E8
:100EB0000310C1F3400140EA41709DF80310C1F3F3
:100EC000800140EA01709DF80310C1F3C00140EABF
:100ED00081301A490839C96A084318490839C86273
:100EE000E5E116480C30006820F0404013490C3111
:100EF000086012480838806920F003010F4808385C
:100F00008161C06920F040410C480838C161006A25
:100F100020F00301094808380162406A20F040418E
:100F2000064808384162806A20F003010348083807
:100F30008162C06A20F04041004805E0082400407A
:100F4000E7FF3FFFFF3FFFCF0838C162006B20F093
:100F50000301DC4801639DF80000C0079DF8001004
:100F6000C1F3C00140EA8170D649143109680843D1
:100F7000D449143108609DF80000C0F380009DF84A
:100F80000010C1F3400140EA4100CE49896908439D
:100F9000CC4988619DF80100C0079DF80110C1F39C
:100FA000C00140EA8170C749C9690843C549C861A1
:100FB0009DF80100C0F380009DF80110C1F34001CD
:100FC00040EA4100BF49096A0843BE4908629DF8EA
:100FD0000200C0079DF80210C1F3C00140EA817011
:100FE000B849496A0843B74948629DF80200C0F30E
:100FF00080009DF80210C1F3400140EA4100B14970
:10100000896A0843AF4988629DF80300C0079DF8CC
:101010000310C1F3C00140EA8170AA49C96A0843BC
:10102000A849C8629DF80300C0F380009DF8031032
:10103000C1F3400140EA4100A249096B0843A149BC
:10104000086334E19F481430006820F040709D49E7
:10105000143108609B48806920F00C019948816137
:10106000C06920F040719748C161006A20F00C010E
:1010700094480162406A20F0407192484162806A5F
:1010800020F00C018F488162C06A20F040718D48C9
:10109000C162006B20F00C018A4801639DF80000DA
:1010A000C0F3400040069DF80010C1F3800140EA03
:1010B0000160844914310968084382491431086089
:1010C0009DF80000C007000F9DF80010C1F3C0019B
:1010D00040EA81007B49896908437A4988619DF823
:1010E0000100C0F3400040069DF80110C1F38001EB
:1010F00040EA01607349C96908437249C8619DF8B3
:101100000100C007000F9DF80110C1F3C00140EAC3
:1011100081006C49096A08436A4908629DF8020027
:10112000C0F3400040069DF80210C1F3800140EA80
:1011300001606449496A0843624948629DF80200B7
:10114000C007000F9DF80210C1F3C00140EA810002
:101150005C49896A08435B4988629DF80300C0F3D3
:10116000400040069DF80310C1F3800140EA016091
:101170005449C96A08435349C8629DF80300C0072F
:10118000000F9DF80310C1F3C00140EA81004D49F2
:10119000096B08434B49086389E04A4814300068EA
:1011A000494908404749143108604648C0694649E2
:1011B00008404449C8610846406A434908404149DB
:1011C00048620846C06A404908403E49C8629DF8E6
:1011D0000000C007800B9DF80010C1F3400140EAF9
:1011E00001209DF80010C1F3800140EA41209DF8E4
:1011F0000010C1F3C00140EA81603249143109682E
:1012000008433049143108609DF80100C007800B85
:101210009DF80110C1F3400140EA01209DF8011042
:10122000C1F3800140EA41209DF80110C1F3C001E3
:1012300040EA81602349C96908432249C8619DF891
:101240000200C007800B9DF80210C1F3400140EA84
:1012500001209DF80210C1F3800140EA41209DF871
:101260000210C1F3C00140EA81601649496A08438F
:10127000144948629DF80300C007800B9DF80310D5
:10128000C1F3400140EA01209DF80310C1F3800141
:1012900040EA41209DF80310C1F3C00140EA81609B
:1012A0000849C96A08430749C86200E000BF00BF97
:1012B00004480830006840F0040002490831086022
:1012C000F8BD000000240040FFFCFDFB5E490968FA
:1012D00021F007015C4A11601146096841F00201E2
:1012E00011605A49096841F48071584A116000BF81
:1012F0005649096801F480610029F9D0102053494A
:10130000496821F0F851514A51601146496841EA53
:10131000006151601146096821F08071116000BFC1
:101320004A49096801F00071B1F1007FF8D04749DE
:10133000C96821F00301454AD1601146C96841F0EE
:101340000201D1601146C96821F4FE4141F4A05167
:10135000D1601146C96821F0700141F01001D160DF
:101360001146C96821F0C061D1601146C96841F0D9
:101370008071D1601146096841F08071116000BF31
:101380003249096801F000710029F9D02F498968B4
:1013900021F003012D4A91601146896841F0030153
:1013A000916000BF2949896801F00C010C29F9D12D
:1013B0002649896821F0F001244A91601146896824
:1013C00021F4E06191601146896821F460519160D7
:1013D0001146096821F08061116000BF1B4909684E
:1013E00001F08061B1F1806FF8D01849096921F4EA
:1013F000FE41164A11611146096941F4C05111615B
:101400001146096941F4003111611146096941F43D
:10141000803111611146096841F08061116000BF9F
:101420000A49096801F080610029F9D0074988312B
:10143000096821F44001054AC2F888101146096E76
:1014400041F4001111667047002002400010024074
:101450003F48C06C40F008003D49C8643D48006802
:1014600040F400603B4908600846006820F4806052
:1014700008600846006840F40050086008460068AC
:1014800020F48050086033482030006820F40000C9
:101490003049203108600846006840F48000086048
:1014A0000846006840F4001008600846006840F4F0
:1014B000801008600846006820F000600860084658
:1014C000006840F0806008600846006840F00070E6
:1014D00008600846006840F0807008601D480830C9
:1014E000006840F400601B49083108600846006845
:1014F00040F4806008600846006840F400500860CE
:101500000846006840F480500860081F006820F01A
:101510002000091F08600846006820F040000860AD
:101520000C480C30006820F400600A490C31086057
:101530000846006840F4806008600846006820F4AF
:10154000005008600846006840F48050086070470A
:1015500000100240000C00480A48806D40F4003042
:101560000849886507488830006820F00800C1F8FD
:1015700088000846D0F8880040F00400C1F88800D0
:101580007047000000100240642242430723B2FB70
:10159000F3F100BF4A1E111EFCD17047016821F013
:1015A00001010160016821F080510160016821F4AE
:1015B00080510160016821F400410160416821F41B
:1015C00000514160416821F48051416042F28D0137
:1015D000C160016841F008010160016841F0040147
:1015E0000160016841F0010101607047F0B50446F7
:1015F0000E46174600250CE000BFE06900F08000B1
:101600000028FAD0705D20854FF49670FFF7BCFF7C
:101610006D1CBD42F0D300BFE06900F0400000281F
:10162000FAD0E06920F04000E061F0BD30380A28CF
:1016300001D20120704700207047000038B50446F1
:101640000D46E0B20090012269460248FFF7CEFF46
:10165000204638BD004400401FB5FFF737FEFEF7B7
:10166000FFFFFFF781F8FFF777FFFFF7F1FE1A485A
:10167000FFF794FF19A0FEF71DFE6C250F2610271B
:1016800000BF00BF00BF00BF24E08DF804608DF8EC
:101690000570022301AA29461248FFF705F9022323
:1016A0006A4629460F48FFF7D1F89DF801009DF8DA
:1016B000001040EA012842460BA102A8FEF706FEF0
:1016C00002A8FFF703FA002400E0641CB4F5FA7FD7
:1016D000FBDB00BFD9E700000044004054455354F1
:1016E0000A000000005400402536640A0000000093
:1016F0004FF04070E1EE100A704700FE1467001DC5
:101700001447009D009C003F00FA140000534198CC
:101710000019485A095A005F00FC015F01FC00AF44
:101720001404005BC018815AC9005800C005005F4E
:10173000004200F5006700EA00AF00BF004600FF6E
:1017400000EF0000641700080000002008000000FF
:10175000C40100086C1700080800002060060000A3
:0C176000E0010008000000000000000094
:040000050800018965
:00000001FF
