:020000040800F2
:1000000068060020310200086D0200086F02000837
:100010007102000873020008750200080000000069
:10002000000000000000000000000000770200084F
:1000300079020008000000007B0200087D02000831
:100040007F0200087F0200087F0200087F0200088C
:100050007F0200087F0200087F0200087F0200087C
:100060007F0200087F0200087F0200087F0200086C
:100070007F0200087F0200087F0200087F0200085C
:100080007F0200087F0200087F0200087F0200084C
:100090007F0200087F0200087F0200087F0200083C
:1000A0007F0200087F0200087F0200087F0200082C
:1000B0007F0200087F0200087F0200087F0200081C
:1000C0007F0200087F0200087F0200087F0200080C
:1000D0007F0200087F0200087F0200087F020008FC
:1000E0007F0200087F0200087F0200087F020008EC
:1000F0007F0200087F0200087F0200087F020008DC
:100100007F0200087F0200087F0200087F020008CB
:100110007F0200087F0200087F0200087F020008BB
:100120007F0200087F0200087F0200087F020008AB
:100130007F0200087F0200087F0200087F0200089B
:100140007F0200087F0200087F0200087F0200088B
:100150007F0200087F0200087F0200087F0200087B
:100160007F0200087F0200087F0200087F0200086B
:100170007F0200087F0200087F02000800000000E4
:100180007F0200087F02000800F002F800F041F84A
:100190000AA090E8000C82448344AAF10107DA45E2
:1001A00001D100F036F8AFF2090EBAE80F0013F0F3
:1001B000010F18BFFB1A43F001031847CC0F0000D2
:1001C000EC0F0000103A24BF78C878C1FAD8520763
:1001D00024BF30C830C144BF04680C6070470000C1
:1001E0000023002400250026103A28BF78C1FBD840
:1001F000520728BF30C148BF0B607047642900F028
:100200009980002070471FB500F0B8FF1FBD10B5E2
:1002100010BD00F055F91146FFF7F5FF00F056FF4D
:1002200000F073F903B4FFF7F2FF03BC00F07AF9B2
:1002300016481749174B99423CBF50F8042B41F818
:10024000042BF8D314494FF000028B4238BF43F817
:10025000042BFAD3DFF84400016841F47001016017
:10026000BFF34F8FBFF36F8F0D480047FEE7FEE7E8
:10027000FEE7FEE7FEE7FEE7FEE7FEE7FEE7FEE756
:1002800008480949094A0A4B70470000A8110008AC
:1002900000000020080000206806002088ED00E033
:1002A000890100086800002068060020680200201C
:1002B000680200200FB4044910B503AA029800F0A8
:1002C000D1F810BC5DF814FB000000202DE9F041CE
:1002D0000E460446002020622046E168884730B37D
:1002E000252805D0D4E901219047206A401CF2E777
:1002F000E168204600278847050018D0A5F1410095
:10030000192802D820354FF4006732462946204686
:100310002760FFF773FF40B1012804D0F61D26F0D7
:1003200007060836D8E7361DD6E72846DAE7206AFA
:10033000BDE8F0812DE9F0410646002410687529DA
:10034000314616A510D0AFF30080002802DA4042F3
:1003500013A507E031688A0701D512A502E0490715
:1003600004D511A5012401E0AFF3008000210A2289
:1003700006F1240709E0B0FBF2FCB0FBF2F302FB4C
:100380001C00303078541846491C0028F3D123460D
:100390002A463046BDE8F04100F00BB800000000EE
:1003A0002D0000002B000000200000007047704767
:1003B00070472DE9F0470D4699469246044600F1F4
:1003C00024080168880604D5E06921F01001216045
:1003D00000E00120A84201DD471B00E00027A169E1
:1003E0007A1902EB0900081AA0612078C00602D42D
:1003F0002046AFF30080002608E0D4E901211AF876
:1004000006009047206A401C761C20624E45F4DBB3
:100410002078C0060AD52046AFF3008006E0D4E974
:10042000012130209047206A401C2062381EA7F12D
:100430000107F4DC07E0D4E9012118F80500904732
:10044000206A401C2062281EA5F10105F3DC20462D
:10045000AFF300802078000602D50220BDE8F087C7
:100460000120FBE7074B70B50D467B4400F011F807
:100470000446284600F020F810B14FF0FF3070BD60
:10048000204670BD430C000001694A1C02610878D7
:10049000704700B58FB0CDE90131002105910549C4
:1004A0007944CDE9031011466846FFF70FFF0FB0FE
:1004B00000BD0000E5FFFFFF007B00F080007047FB
:1004C000754600F02BF8AE4605006946534620F00D
:1004D0000700854618B020B5FFF7D2FEBDE82040E2
:1004E0004FF000064FF000074FF000084FF0000BF0
:1004F00021F00701AC46ACE8C009ACE8C009ACE8A3
:10050000C009ACE8C0098D46704710B50446AFF38A
:1005100000802046BDE81040FFF784BE00487047C9
:100520000800002001491820ABBEFEE726000200AB
:10053000704700003F48C06C40F002003D49C8646D
:100540003D48006840F400503B4908600846006898
:1005500020F4805008600846006840F400400860BD
:100560000846006820F48040086033482030006866
:1005700020F000603049203108600846006840F0F3
:10058000806008600846006820F000700860084637
:10059000006820F0807008600846006820F0004085
:1005A00008600846006840F080400860084600681F
:1005B00020F0005008600846006820F08050086075
:1005C0001D480830006840F400501B49083108609D
:1005D0000846006840F4805008600846006840F40F
:1005E000004008600846006840F480400860081F2A
:1005F000006840F04000091F08600846006840F0AD
:10060000800008600C480C30006820F400500A4953
:100610000C3108600846006840F4805008600846C5
:10062000006820F4004008600846006840F48040FC
:100630000860704700100240000400485221384A08
:10064000926D42F40012364B9A65354A8832126830
:1006500022F40052C3F888201A46D2F8882042F4C7
:100660008052C3F888201A46926B42F400129A63B3
:100670001A46926B22F400129A632A4A126822F0F8
:100680000102284B1A601A46126822F480521A603E
:100690001A46126822F470621A601A46126842F012
:1006A00080021A601A46126822F400321A601A1D7B
:1006B000126822F400621B1D1A601A46126842F08A
:1006C00000721A601A46126842F400421A60002052
:1006D00040F0E04040F4600040F4702040F470507E
:1006E00040F046000F4A103210601A1D126822F4C2
:1006F00000421B1D1A601A46126822F480621A60BA
:100700001A4612680A431A601A46126842F40042F6
:100710001A60044A126842F00102024B1A607047E4
:1007200000100240005400402DE9F0410446884684
:1007300017461D46002D00DD1FB94FF0FF30BDE804
:10074000F081204600F087F801232A4641462046E2
:1007500000F056F8002608E000BFA06900F0040091
:100760000028FAD0606AB855761CAE42F4DB00BFB0
:10077000A06900F040000028FAD0204600F060F8A0
:100780000020DCE72DE9F0410446884617461D4667
:10079000002D00DD1FB94FF0FF30BDE8F08120468D
:1007A00000F059F800232A464146204600F028F878
:1007B000002802DA4FF0FF30EFE7002608E000BF24
:1007C000A06900F002000028FAD0B85DA062761C93
:1007D000AE42F4DB00BFA06900F0400020B9A06980
:1007E00000F010000028F6D0A06900F0100010B151
:1007F0004FF0FF30D1E7204600F022F80020CCE790
:1008000070B504460D46002161680C480140012B7B
:1008100002D141F4806101E021F48061C5F3090057
:100820004FF47F0606EA0246304301436160606888
:1008300040F400506060002070BD0000009000FC9B
:10084000416841F48041416000BF816901F02001AD
:100850000029FAD0704700BF816901F40041B1F569
:10086000004FF9D070470000002000BF0B49096815
:1008700001F004010029F9D1002006E00022074917
:100880000C3141F82020411CC8B20F28F6DD034985
:10089000096841F00401014A1160704708240040D2
:1008A0002F48806D00F0805028B92D48806D40F0B1
:1008B00080502B4988652A48806D2A48006800F4DA
:1008C000807060B92748006840F48070254908604E
:1008D00000BF2448006800F480700028F9D0204848
:1008E0009030006820F005001D49C1F890000846CE
:1008F000D0F8900040F48030C1F890000846D0F85D
:10090000900020F48030C1F8900007E01448903047
:10091000006840F001001249C1F890001048903082
:10092000006800F002000028F0D00D489030006808
:1009300020F440700A49C1F890000846D0F89000B1
:1009400040F48070C1F890000846806D20F080501F
:1009500088650846806D40F4007088657047000027
:1009600000100240007000403E48006820F0010086
:100970003C490860081D006840F47010091D0860BB
:100980000846006820F0707008600846006820F48F
:10099000403008600846006820F46040086008465F
:1009A000006840F4804008600846006840F070002D
:1009B00008600846006820F4E050086008460068B7
:1009C00040F4A05008600846006820F070000860FD
:1009D0000846006840F04000086000BF2148083029
:1009E000006800F020000028F8D01E48006820F0C1
:1009F0001C001C4908600846006840F00C000860B4
:100A00000846006820F0600008600846006840F072
:100A1000400008600846006820F080000860084632
:100A2000006820F0020008600846006840F00100FD
:100A3000086000BF0B480830006800F00100002883
:100A4000F8D000BF07480830006800F01000002808
:100A5000F8D004480830006840F00400014908312B
:100A6000086070470024004000B500F007F8FFF769
:100A700017FFFFF779FFFFF7F7FE00BD5E48C06C78
:100A800040F00F005C49C8644FF0904000685B493B
:100A900008404FF0904108600846006858490843F4
:100AA0004FF0904108600846006A40F03B40086201
:100AB0000846406A534908434FF09041486208464F
:100AC00080684E4908404FF0904188600846806831
:100AD0004B4908434FF0904188600846C068474939
:100AE00008404FF09041C8604748006847490840B7
:100AF000454908600846006845490843424908607E
:100B000041482030006840F0BB103F492031086068
:100B10003D48406A3F4908433B4948623A480830EB
:100B200000683A49084038490831086008460068BA
:100B300037490843344908310860081D00683349C3
:100B4000084031490C310860334800683349084097
:100B50003149086008460068314908432E49086059
:100B60002D48203000682F4908432B492031086068
:100B70002948406A40F00B01274841622648083066
:100B80000068264908402449083108600846006882
:100B900023490843204908310860081D00681F499F
:100BA00008401D490C3108601F48006880B21E498A
:100BB0000860084600681D4908431B49086008464C
:100BC000406A40F0BB31184841621748083000685D
:100BD0006FF30F0014490831086008460068134994
:100BE0000843114908310860081D00686FF30F00C1
:100BF000091D08607047000000100240FF0FC03F51
:100C000000A02A80BB0B00B000040048F0F0F30005
:100C10000A0A08AAB000BBBB000800483F00FCFF5E
:100C200080AA020000B0BBBB000C00480000AAAACA
:100C30004448C06C40F010004249C8640846006E49
:100C400040F4006008664048006820F480303E4967
:100C500008600846006840F4003008600846806874
:100C600040F4803088600846806840F40030886036
:100C70000846C06820F48030C8600846C06820F488
:100C80000030C8600846406A40F001012E484162C9
:100C9000406A20F002012C484162406A20F00401C1
:100CA00029484162406A20F00801274841622748EC
:100CB000006820F010002549086041F63F70234984
:100CC00028310860C720091D086000201F49343101
:100CD00008601E481830006820F010001B491831C9
:100CE00008600846006840F0200008600846006878
:100CF00040F0400008600846006820F4803008603A
:100D00000846006840F0080008601048203000687D
:100D100020F008000D49203108600846006840F0C6
:100D20000400086009484430006840F40040074966
:100D3000443108600548006840F00100034908603C
:100D4000704700000010024000100048002C0140D5
:100D50005E49096821F007015C4A11601146096883
:100D600041F0020111605A49096841F48071584A02
:100D7000116000BF5649096801F480610029F9D06B
:100D800010205349496821F0F851514A51601146E9
:100D9000496841EA006151601146096821F080719B
:100DA000116000BF4A49096801F00071B1F1007F8C
:100DB000F8D04749C96821F00301454AD16011467E
:100DC000C96841F00201D1601146C96821F4FE41B1
:100DD00041F4A051D1601146C96821F0700141F081
:100DE0001001D1601146C96821F0C061D16011467F
:100DF000C96841F08071D1601146096841F0807185
:100E0000116000BF3249096801F000710029F9D072
:100E10002F49896821F003012D4A916011468968A4
:100E200041F00301916000BF2949896801F00C017C
:100E30000C29F9D12649896821F0F001244A9160F2
:100E40001146896821F4E06191601146896821F4B6
:100E5000605191601146096821F08061116000BF06
:100E60001B49096801F08061B1F1806FF8D0184921
:100E7000096921F4FE41164A11611146096941F4DC
:100E8000C05111611146096941F4003111611146E7
:100E9000096941F4803111611146096841F08061AE
:100EA000116000BF0A49096801F080610029F9D08A
:100EB00007498831096821F44001054AC2F88810C1
:100EC0001146096E41F4001111667047002002407E
:100ED000001002403F48C06C40F008003D49C86423
:100EE0003D48006840F400603B49086008460068DF
:100EF00020F4806008600846006840F400500860F4
:100F00000846006820F480500860334820300068AC
:100F100020F400003049203108600846006840F4A1
:100F2000800008600846006840F400100860084629
:100F3000006840F4801008600846006820F00060F7
:100F400008600846006840F0806008600846006855
:100F500040F0007008600846006840F0807008604B
:100F60001D480830006840F400601B4908310860E3
:100F70000846006840F4806008600846006840F455
:100F8000005008600846006840F480500860081F60
:100F9000006820F02000091F08600846006820F063
:100FA000400008600C480C30006820F400600A49DA
:100FB0000C3108600846006840F48060086008460C
:100FC000006820F4005008600846006840F4805033
:100FD0000860704700100240000C00480A48806D0D
:100FE00040F400300849886507488830006820F0E0
:100FF0000800C1F888000846D0F8880040F00400D6
:10100000C1F888007047000000100240642242438B
:101010000723B2FBF3F100BF4A1E111EFCD170473B
:10102000016821F001010160016821F08051016037
:10103000016821F480510160016821F400410160E0
:10104000416821F400514160416821F480514160C0
:1010500042F28D01C160016841F008010160016840
:1010600041F004010160016841F001010160704735
:10107000F0B504460E46174600250CE000BFE069B7
:1010800000F080000028FAD0705D20854FF4967043
:10109000FFF7BCFF6D1CBD42F0D300BFE06900F05C
:1010A00040000028FAD0E06920F04000E061F0BD87
:1010B00038B504460D46E0B2009001226946024868
:1010C000FFF7D6FF204638BD004400401CB5FFF7AF
:1010D0003FFEFFF7C9FCFFF7C7FBFFF72BFAFFF74F
:1010E000ADFAFFF77BFFFFF7F5FE1B48FFF798FF10
:1010F000FFF79EFD19A0FFF7DDF86C250F261027DE
:1011000028E08DF804608DF80570022301AA2946B5
:101110001448FFF737FB13481C30006840F02000EC
:1011200010491C31086002236A4629460D48FFF722
:10113000FBFA9DF801009DF8001040EA01284146A5
:1011400009A0FFF7B7F8002400E0641CB4F5FA7FAB
:10115000FBDB00BFD5E7000000440040544553547A
:101160000A000000005400405265636569766564BA
:101170002056616C75653A2025640A004FF0407076
:10118000E1EE100A70470000A811000800000020DE
:1011900008000000C4010008B01100080800002089
:1011A00060060000E00100080000000000000000F0
:040000050800018965
:00000001FF
