:020000040800F2
:1000000078060020310200086D0200086F02000827
:100010007102000873020008750200080000000069
:10002000000000000000000000000000770200084F
:1000300079020008000000007B0200081D1900087A
:100040007F0200087F0200087F0200087F0200088C
:100050007F0200087F020008350500087F020008C3
:100060007F0200087F0200087F0200087F0200086C
:100070007F0200087F0200087F0200087F0200085C
:100080007F0200087F0200087F0200087F0200084C
:100090007F0200087F0200087F0200087F0200083C
:1000A0007F0200087F0200087F0200087F0200082C
:1000B0007F0200087F0200087F0200087F0200081C
:1000C0007F0200087F0200087F0200087F0200080C
:1000D0007F0200087F0200087F0200087F020008FC
:1000E0007F0200087F0200087F0200087F020008EC
:1000F0007F0200087F0200087F0200087F020008DC
:100100007F0200087F0200087F0200087F020008CB
:100110007F0200087F0200087F0200087F020008BB
:100120007F0200087F0200087F0200087F020008AB
:100130007F0200087F0200087F0200087F0200089B
:100140007F0200087F0200087F0200087F0200088B
:100150007F0200087F0200087F0200087F0200087B
:100160007F0200087F0200087F0200087F0200086B
:100170007F0200087F0200087F02000800000000E4
:100180007F0200087F02000800F002F800F041F84A
:100190000AA090E8000C82448344AAF10107DA45E2
:1001A00001D100F036F8AFF2090EBAE80F0013F0F3
:1001B000010F18BFFB1A43F001031847D41D0000BC
:1001C000F41D0000103A24BF78C878C1FAD852074D
:1001D00024BF30C830C144BF04680C6070470000C1
:1001E0000023002400250026103A28BF78C1FBD840
:1001F000520728BF30C148BF0B607047642900F028
:100200009980002070471FB501F098FE1FBD10B502
:1002100010BD00F055F91146FFF7F5FF01F098FD0C
:1002200000F073F903B4FFF7F2FF03BC00F07AF9B2
:1002300016481749174B99423CBF50F8042B41F818
:10024000042BF8D314494FF000028B4238BF43F817
:10025000042BFAD3DFF84400016841F47001016017
:10026000BFF34F8FBFF36F8F0D480047FEE7FEE7E8
:10027000FEE7FEE7FEE7FEE7FEE7FEE7FEE7FEE756
:1002800008480949094A0A4B70470000B01F000896
:1002900000000020180000207806002088ED00E013
:1002A00089010008780000207806002078020020EC
:1002B000780200200FB4044910B503AA029800F098
:1002C000D1F810BC5DF814FB000000202DE9F041CE
:1002D0000E460446002020622046E168884730B37D
:1002E000252805D0D4E901219047206A401CF2E777
:1002F000E168204600278847050018D0A5F1410095
:10030000192802D820354FF4006732462946204686
:100310002760FFF773FF40B1012804D0F61D26F0D7
:1003200007060836D8E7361DD6E72846DAE7206AFA
:10033000BDE8F0812DE9F0410646002410687529DA
:10034000314616A510D0AFF30080002802DA4042F3
:1003500013A507E031688A0701D512A502E0490715
:1003600004D511A5012401E0AFF3008000210A2289
:1003700006F1240709E0B0FBF2FCB0FBF2F302FB4C
:100380001C00303078541846491C0028F3D123460D
:100390002A463046BDE8F04100F00BB800000000EE
:1003A0002D0000002B000000200000007047704767
:1003B00070472DE9F0470D4699469246044600F1F4
:1003C00024080168880604D5E06921F01001216045
:1003D00000E00120A84201DD471B00E00027A169E1
:1003E0007A1902EB0900081AA0612078C00602D42D
:1003F0002046AFF30080002608E0D4E901211AF876
:1004000006009047206A401C761C20624E45F4DBB3
:100410002078C0060AD52046AFF3008006E0D4E974
:10042000012130209047206A401C2062381EA7F12D
:100430000107F4DC07E0D4E9012118F80500904732
:10044000206A401C2062281EA5F10105F3DC20462D
:10045000AFF300802078000602D50220BDE8F087C7
:100460000120FBE7074B70B50D467B4400F011F807
:100470000446284600F020F810B14FF0FF3070BD60
:10048000204670BDC718000001694A1C0261087847
:10049000704700B58FB0CDE90131002105910549C4
:1004A0007944CDE9031011466846FFF70FFF0FB0FE
:1004B00000BD0000E5FFFFFF007B00F080007047FB
:1004C000754600F02BF8AE4605006946534620F00D
:1004D0000700854618B020B5FFF7D2FEBDE82040E2
:1004E0004FF000064FF000074FF000084FF0000BF0
:1004F00021F00701AC46ACE8C009ACE8C009ACE8A3
:10050000C009ACE8C0098D46704710B50446AFF38A
:1005100000802046BDE81040FFF784BE00487047C9
:100520001800002001491820ABBEFEE7260002009B
:100530007047000010B51448006840F001001249EF
:10054000086012480088C0B230B1114800681149F3
:10055000086011A000F0DEFA0E4800680C49096836
:1005600088420FD00EA0FFF7A5FE0F48006809498A
:1005700008600EA000F0CEFA002000E0401C0D49FB
:100580008842FBDB10BD0000140401402438014008
:1005900014000020342C0140484F4C44000000005F
:1005A00053544152540A00000C000020535441524D
:1005B0005400000040420F0010B54FF0904000681A
:1005C00040F6FF4188434FF0904108600846C068FC
:1005D00040F2667188434FF09041C8600846C06899
:1005E00040F6AA0108434FF09041C8601D4880685A
:1005F00020F007001B4988600846806888601A4818
:10060000006840F001001849086017480C3800687D
:1006100040F0010014490C390860062000280DDB69
:1006200000BF00BF00F01F0201219140420992006B
:1006300002F1E022C2F8001100BF00BF00BF062097
:100640000021002804DB0A07130E084A135406E0B1
:100650000A07140E064A00F00F031B1FD45400BFF4
:1006600010BD0000000001400C04014000E400E067
:1006700018ED00E01848C06C40F008001649C86446
:100680001648006820F400401449086008460068D5
:1006900040F48040086011480830006840F4004091
:1006A0000E49083108600846006840F48040086040
:1006B000081D006820F40040091D08600846006815
:1006C00020F48040086005481430006840F0800045
:1006D000024914310860704700100240000C0048C5
:1006E00070B58AB004460D46164645F0C00001902C
:1006F0000F48006820F080000D4908600A2001F0D2
:1007000039F8012302AA01A90A4801F0E8F83246A3
:100710002146084801F0C4F80A2001F02BF80448EB
:10072000006840F08000024908600AB070BD000017
:10073000140C00480038004037B588B00546144610
:10074000012C04DD9DF8240040F040000990104881
:10075000006820F080000E4908600A2001F00AF8C5
:1007600001236A4609A90B4801F0B9F823466A46F5
:100770002946084801F0B3F80A2000F0FBFF0448BE
:10078000006840F08000024908600BB030BD0000F6
:10079000140C00480038004010B50748006E40F0C7
:1007A00001000549086600F029FF00F0EFFFFFF7A0
:1007B00061FF00F003F810BD0010024008B51F20D3
:1007C0000090012220216846FFF7B6FF202000900C
:1007D000012223216846FFF7AFFF08BD002000BFBC
:1007E0000B49096801F004010029F9D1002006E055
:1007F000002207490C3141F82020411CC8B20F28C3
:10080000F6DD0349096841F00401014A11607047AF
:10081000082400402F48806D00F0805028B92D48F2
:10082000806D40F080502B4988652A48806D2A48A9
:10083000006800F4807060B92748006840F4807058
:100840002549086000BF2448006800F48070002833
:10085000F9D020489030006820F005001D49C1F80B
:1008600090000846D0F8900040F48030C1F8900025
:100870000846D0F8900020F48030C1F8900007E0DE
:1008800014489030006840F001001249C1F890000F
:1008900010489030006800F002000028F0D00D48A9
:1008A0009030006820F440700A49C1F89000084672
:1008B000D0F8900040F48070C1F890000846806D38
:1008C00020F0805088650846806D40F4007088658F
:1008D0007047000000100240007000403E48006871
:1008E00020F001003C490860081D006840F47010C9
:1008F000091D08600846006820F07070086008460E
:10090000006820F4403008600846006820F4604029
:1009100008600846006840F48040086008460068A7
:1009200040F0700008600846006820F4E05008605D
:100930000846006840F4A05008600846006820F0AF
:10094000700008600846006840F04000086000BF82
:1009500021480830006800F020000028F8D01E4828
:10096000006820F01C001C4908600846006840F040
:100970000C0008600846006820F060000860084627
:10098000006840F0400008600846006820F08000E1
:1009900008600846006820F0020008600846006809
:1009A00040F00100086000BF0B480830006800F00C
:1009B00001000028F8D000BF07480830006800F0A8
:1009C00010000028F8D004480830006840F0040007
:1009D000014908310860704700240040F0B50C461A
:1009E00015460021002600220778342F53D00FDC53
:1009F000A7F12007142F5AD2DFE807F023595959DD
:100A000059435959282A253B5938593E494A4B4C94
:100A1000642F1FD008DCA7F13507052F47D2DFE888
:100A200007F03B3C3D3E3F00B02F27D004DC6D2F4C
:100A300013D06E2F3BD113E0B52F14D0FF2F36D13A
:100A400022E000214CE04AF2DD0149E0282147E0A4
:100A5000112145E04FF4734142E04BF210213FE099
:100A600042F210213CE046F2840139E04FF420418B
:100A700036E04AF2140133E0C02131E04FF46C411A
:100A80002EE04FF433412BE04FF6DD7128E000BF3C
:100A900000BF00BF00BF00BF00BF00BF00BF00BF5E
:100AA0000778303FDFF864C03CF8171018E007788B
:100AB0005B2F08DA0778402F05DD0778413FDFF824
:100AC00050C03CF8171007787B2F08DA0778602FA2
:100AD00005DD0778613FDFF838C03CF8171000BF2C
:100AE00000BF0CB141F002010DB141F020010C2614
:100AF000002208E041FA06F707F00F079F54371F5E
:100B0000FEB2571CFAB2042AF4DBF0BD7A1F0008CB
:100B1000461F00082DE9F041044600250026002765
:100B200020E060783A2801D1012600E000266078B4
:100B30002E2801D1012700E000270EB1012000E09E
:100B4000002002460FB1012000E0002001462B46A4
:100B5000204600F0F1F8641C06B1641C07B1641C67
:100B6000681CC5B2207808B1062DDADBBDE8F0813B
:100B700000B500F007F8FFF74DFEFFF7AFFEFFF7F7
:100B80002DFE00BD5E48C06C40F00F005C49C8649B
:100B90004FF0904000685B4908404FF0904108607A
:100BA00008460068584908434FF0904108600846DD
:100BB000006A40F03B4008620846406A53490843D7
:100BC0004FF090414862084680684E4908404FF017
:100BD00090418860084680684B4908434FF0904137
:100BE00088600846C068474908404FF09041C86097
:100BF000474800684749084045490860084600687A
:100C0000454908434249086041482030006840F0A7
:100C1000BB103F49203108603D48406A3F490843C6
:100C20003B4948623A48083000683A490840384928
:100C300008310860084600683749084334490831DC
:100C40000860081D00683349084031490C310860CC
:100C50003348006833490840314908600846006855
:100C6000314908432E4908602D48203000682F493B
:100C700008432B49203108602948406A40F00B01A5
:100C80002748416226480830006826490840244920
:100C900008310860084600682349084320490831A4
:100CA0000860081D00681F4908401D490C31086094
:100CB0001F48006880B21E490860084600681D4948
:100CC00008431B4908600846406A40F0BB31184899
:100CD00041621748083000686FF30F00144908316B
:100CE0000860084600681349084311490831086044
:100CF000081D00686FF30F00091D086070470000B1
:100D000000100240FF0FC03F00A02A80BB0B00B0C4
:100D100000040048F0F0F3000A0A08AAB000BBBBC8
:100D2000000800483F00FCFF80AA020000B0BBBBE7
:100D3000000C00480000AAAAF8B505460E46174662
:100D40001C466B463A4631462846FFF747FE00BF31
:100D5000FE48006800F004000028F9D1062C7DD27E
:100D6000DFE804F00398FCFBFAF9F8480C3000685F
:100D7000F7490840F5490C310860F4480838C06963
:100D8000F3490840F1490839C8610846406AF0490A
:100D90000840EE49083948620846C06AEC490840F4
:100DA000EA490839C8629DF80000C007C00E9DF8E6
:100DB0000010C1F3400140EAC1509DF80010C1F39A
:100DC000800140EA81509DF80010C1F3C00140EA63
:100DD000C100DE490C3109680843DC490C31086068
:100DE0009DF80100C007C00E9DF80110C1F340013D
:100DF00040EAC1509DF80110C1F3800140EA8150E2
:100E00009DF80110C1F3C00140EAC100CF49083983
:100E1000C9690843CD490839C8619DF80200C00777
:100E2000C00E9DF80210C1F3400140EAC1509DF888
:100E30000210C1F3800140EA81509DF80210C1F315
:100E4000C00140EAC100C1490839496A0843BF49A5
:100E5000083948629DF80300C00700E02EE3C00E89
:100E60009DF80310C1F3400140EAC1509DF8031002
:100E7000C1F3800140EA81509DF80310C1F3C00125
:100E800040EAC100B1490839C96A0843AF49083985
:100E9000C86214E3AD480C30006843F26001884337
:100EA000AA490C310860A9480838C06943F26001BA
:100EB0008843A6490839C8610846406A43F2600180
:100EC0008843A249083948620846C06A43F2600173
:100ED00088439E490839C8629DF80000C007400E4B
:100EE0009DF80010C1F3400140EA41309DF8001028
:100EF000C1F3800140EA01309DF80010C1F3C00148
:100F000040EA411091490C31096808438F490C317E
:100F100008609DF80100C007400E9DF80110C1F364
:100F2000400140EA41309DF80110C1F3800140EAE0
:100F300001309DF80110C1F3C00140EA411083491E
:100F40000839C969084381490839C8619DF8020018
:100F5000C007400E03E028E27CE1CAE036E09DF8DD
:100F60000210C1F3400140EA41309DF80210C1F384
:100F7000800140EA01309DF80210C1F3C00140EA4F
:100F8000411072490839496A084370490839486272
:100F90009DF80300C007400E9DF80310C1F3400107
:100FA00040EA41309DF80310C1F3800140EA01306E
:100FB0009DF80310C1F3C00140EA411063490839AC
:100FC000C96A084361490839C86278E25F480C3051
:100FD0000068604908405D490C3108605B4808388A
:100FE000C0695C49084059490839C8610846406AE7
:100FF000584908405549083948620846C06A554969
:10100000084052490839C8629DF80000C007000C2A
:101010009DF80010C1F3400140EA41709DF80010B6
:10102000C1F3800140EA01709DF80010C1F3C001D6
:1010300040EA813045490C310968084343490C3185
:1010400008609DF80100C007000C9DF80110C1F375
:10105000400140EA41709DF80110C1F3800140EA6F
:1010600001709DF80110C1F3C00140EA8130374999
:101070000839C969084335490839C8619DF8020033
:10108000C007000C9DF80210C1F3400140EA417016
:101090009DF80210C1F3800140EA01709DF8021032
:1010A000C1F3C00140EA813028490839496A084340
:1010B0002649083948629DF80300C007000C9DF8D6
:1010C0000310C1F3400140EA41709DF80310C1F3E1
:1010D000800140EA01709DF80310C1F3C00140EAAD
:1010E00081301A490839C96A084318490839C86261
:1010F000E5E116480C30006820F0404013490C31FF
:10110000086012480838806920F003010F48083849
:101110008161C06920F040410C480838C161006A13
:1011200020F00301094808380162406A20F040417C
:10113000064808384162806A20F0030103480838F5
:101140008162C06A20F04041004805E00824004068
:10115000E7FF3FFFFF3FFFCF0838C162006B20F081
:101160000301DC4801639DF80000C0079DF80010F2
:10117000C1F3C00140EA8170D649143109680843BF
:10118000D449143108609DF80000C0F380009DF838
:101190000010C1F3400140EA4100CE49896908438B
:1011A000CC4988619DF80100C0079DF80110C1F38A
:1011B000C00140EA8170C749C9690843C549C8618F
:1011C0009DF80100C0F380009DF80110C1F34001BB
:1011D00040EA4100BF49096A0843BE4908629DF8D8
:1011E0000200C0079DF80210C1F3C00140EA8170FF
:1011F000B849496A0843B74948629DF80200C0F3FC
:1012000080009DF80210C1F3400140EA4100B1495D
:10121000896A0843AF4988629DF80300C0079DF8BA
:101220000310C1F3C00140EA8170AA49C96A0843AA
:10123000A849C8629DF80300C0F380009DF8031020
:10124000C1F3400140EA4100A249096B0843A149AA
:10125000086334E19F481430006820F040709D49D5
:10126000143108609B48806920F00C019948816125
:10127000C06920F040719748C161006A20F00C01FC
:1012800094480162406A20F0407192484162806A4D
:1012900020F00C018F488162C06A20F040718D48B7
:1012A000C162006B20F00C018A4801639DF80000C8
:1012B000C0F3400040069DF80010C1F3800140EAF1
:1012C0000160844914310968084382491431086077
:1012D0009DF80000C007000F9DF80010C1F3C00189
:1012E00040EA81007B49896908437A4988619DF811
:1012F0000100C0F3400040069DF80110C1F38001D9
:1013000040EA01607349C96908437249C8619DF8A0
:101310000100C007000F9DF80110C1F3C00140EAB1
:1013200081006C49096A08436A4908629DF8020015
:10133000C0F3400040069DF80210C1F3800140EA6E
:1013400001606449496A0843624948629DF80200A5
:10135000C007000F9DF80210C1F3C00140EA8100F0
:101360005C49896A08435B4988629DF80300C0F3C1
:10137000400040069DF80310C1F3800140EA01607F
:101380005449C96A08435349C8629DF80300C0071D
:10139000000F9DF80310C1F3C00140EA81004D49E0
:1013A000096B08434B49086389E04A4814300068D8
:1013B000494908404749143108604648C0694649D0
:1013C00008404449C8610846406A434908404149C9
:1013D00048620846C06A404908403E49C8629DF8D4
:1013E0000000C007800B9DF80010C1F3400140EAE7
:1013F00001209DF80010C1F3800140EA41209DF8D2
:101400000010C1F3C00140EA81603249143109681B
:1014100008433049143108609DF80100C007800B73
:101420009DF80110C1F3400140EA01209DF8011030
:10143000C1F3800140EA41209DF80110C1F3C001D1
:1014400040EA81602349C96908432249C8619DF87F
:101450000200C007800B9DF80210C1F3400140EA72
:1014600001209DF80210C1F3800140EA41209DF85F
:101470000210C1F3C00140EA81601649496A08437D
:10148000144948629DF80300C007800B9DF80310C3
:10149000C1F3400140EA01209DF80310C1F380012F
:1014A00040EA41209DF80310C1F3C00140EA816089
:1014B0000849C96A08430749C86200E000BF00BF85
:1014C00004480830006840F0040002490831086010
:1014D000F8BD000000240040FFFCFDFB4448C06C48
:1014E00040F010004249C8640846006E40F40060B5
:1014F00008664048006820F480303E49086008468D
:10150000006840F4003008600846806840F480308D
:1015100088600846806840F4003088600846C068EB
:1015200020F48030C8600846C06820F40030C860ED
:101530000846406A40F001012E484162406A20F0AE
:1015400002012C484162406A20F0040129484162AE
:10155000406A20F00801274841622748006820F0CF
:1015600010002549086041F63F7023492831086082
:10157000C720091D086000201F49343108601E483B
:101580001830006820F010001B4918310860084628
:10159000006840F0200008600846006840F0400005
:1015A00008600846006820F480300860084600683B
:1015B00040F00800086010482030006820F0080063
:1015C0000D49203108600846006840F004000860BA
:1015D00009484430006840F400400749443108603D
:1015E0000548006840F001000349086070470000AA
:1015F0000010024000100048002C01405B48C06C05
:1016000040F008005949C8645948006840F0080093
:10161000574908600846006820F004000860084642
:10162000006840F0800008600846006820F0400034
:1016300008600846006840F40070086008460068CA
:1016400020F4807008604A482030006820F0800054
:101650004749203108600846006840F040000860B3
:101660000846006820F0200008600846006840F046
:10167000100008600846006820F400400860084632
:10168000006840F4804008600846006820F400507C
:1016900008600846006840F480500860084600680A
:1016A00020F4002008600846006840F480200860AC
:1016B0000846006820F4003008600846006840F4DE
:1016C000803008602A480830006840F00800284947
:1016D000083108600846006840F0040008600846C9
:1016E000006840F0800008600846006840F0400054
:1016F00008600846006840F400700860084600680A
:1017000040F480700860081F006820F00200091F84
:1017100008600846006820F0080008600846006875
:1017200020F01000086012480C30006820F008001B
:101730000F490C3108600846006820F0040008607A
:101740000846006820F0800008600846006820F025
:10175000400008600846006820F4007008600846F1
:10176000006820F48070086070470000001002409C
:10177000000C0048002105E0002200E0521C122A63
:10178000FCD3491C8142F7D3704700004248806D6A
:1017900040F48040404988650846806B40F48040B2
:1017A00088630846806B20F4804088633B4800686B
:1017B00020F04000394908600846006820F4806045
:1017C00008600846006820F4004008600846006889
:1017D00020F4804008600846006820F0800008601F
:1017E000081D006820F40060091D086008460068B4
:1017F00040F4806008600846006840F400700860AB
:101800000846006840F4807008600846006820F0D0
:1018100010000860081F006820F00200091F08601F
:101820000846006820F0010008600846006820F0C3
:10183000200008600846006840F010000860084674
:10184000006840F0080008600846006820F4005076
:1018500008600846006840F0040008600846006818
:1018600040F400700860081D006840F00800091D81
:101870000860081F006840F48070091F0860081D98
:10188000006840F48050091D0860081F006840F09F
:101890004000091F086070470010024000380040F7
:1018A00010B50B46002100BF10E000BF846804F0B3
:1018B0000204022CFAD15C5C047300BF846804F05B
:1018C0000104002CFAD0047B5C54491C9142ECDBEF
:1018D00000BF846804F08004802CFAD010BD30B5BD
:1018E0000C46002100BF10E000BF856805F002052E
:1018F000022DFAD1655C057300BF856805F001050E
:10190000002DFAD0057B5554491C9942ECDB00BFF1
:10191000856805F08005802DFAD030BD024800684A
:10192000401C0149086070470800002010B50020E5
:101930004FF0E02108611D48486100208861401E89
:101940000121002804DB0A07130E194A135406E08C
:101950000A07140E174A00F00F031B1FD45400BFD0
:101960004FF0FF3000280DDB00BF00BF00F01F026A
:10197000012191404209920002F1E022C2F80011D7
:1019800000BF00BF00BF4FF0E020006940F0020040
:101990004FF0E02108610846006940F0040008614A
:1019A0000846006940F00100086110BD7F38010061
:1019B00000E400E018ED00E05E49096821F007014D
:1019C0005C4A11601146096841F0020111605A49F0
:1019D000096841F48071584A116000BF564909688E
:1019E00001F480610029F9D010205349496821F0A1
:1019F000F851514A51601146496841EA006151600D
:101A00001146096821F08071116000BF4A490968D8
:101A100001F00071B1F1007FF8D04749C96821F0A9
:101A20000301454AD1601146C96841F00201D16005
:101A30001146C96821F4FE4141F4A051D16011461C
:101A4000C96821F0700141F01001D1601146C968E8
:101A500021F0C061D1601146C96841F08071D16048
:101A60001146096841F08071116000BF3249096870
:101A700001F000710029F9D02F49896821F0030194
:101A80002D4A91601146896841F00301916000BFC1
:101A90002949896801F00C010C29F9D12649896886
:101AA00021F0F001244A91601146896821F4E06137
:101AB00091601146896821F460519160114609686E
:101AC00021F08061116000BF1B49096801F080614D
:101AD000B1F1806FF8D01849096921F4FE41164A26
:101AE00011611146096941F4C0511161114609693A
:101AF00041F4003111611146096941F480311161ED
:101B00001146096841F08061116000BF0A49096807
:101B100001F080610029F9D007498831096821F472
:101B20004001054AC2F888101146096E41F40011BF
:101B30001166704700200240001002403F48C06C10
:101B400040F002003D49C8643D48006840F4005040
:101B50003B4908600846006820F480500860084649
:101B6000006840F4004008600846006820F48040A7
:101B7000086033482030006820F000603049203190
:101B800008600846006840F0806008600846006809
:101B900040F0007008600846006840F080700860FF
:101BA0000846006820F0004008600846006840F0E1
:101BB000804008600846006840F000500860084611
:101BC000006840F0805008601D480830006840F40C
:101BD00000501B49083108600846006840F48050F6
:101BE00008600846006840F4004008600846006845
:101BF00040F480400860081F006820F04000091F82
:101C000008600846006820F0800008600C480C302E
:101C1000006820F400500A490C310860084600684A
:101C200040F4805008600846006820F400400860D6
:101C30000846006840F48040086070470010024089
:101C4000000400480A48006E40F4804008490866D5
:101C500007488830006820F00200C1F88800084674
:101C6000D0F8880040F00100C1F8880070470000FB
:101C700000100240642242430723B2FBF3F100BF8D
:101C80004A1E111EFCD17047016821F0010101605C
:101C9000016821F080510160016821F480510160E8
:101CA000016821F400410160416821F40051416064
:101CB000416821F48051416042F28D01C1600168A8
:101CC00041F008010160016841F004010160016810
:101CD00041F0010101607047F0B504460E46174619
:101CE00000250CE000BFE06900F080000028FAD079
:101CF000705D20854FF49670FFF7BCFF6D1CBD42F0
:101D0000F0D300BFE06900F040000028FAD0E0699D
:101D100020F04000E061F0BD054A116800BF044AB0
:101D20001268521A8242FAD30022014B1A6070479D
:101D30000800002038B504460D46E0B200900122AC
:101D400069460248FFF7C8FF204638BD0038014009
:101D50002DED048B86B0FFF72FFEFFF7E7FDFEF7B2
:101D60001BFDFEF705FFFEF739FDFFF76BFFFFF7E1
:101D7000E5FE5D48FFF788FFFFF7B0FBFEF71CFCB0
:101D800006250C260B27ADE000200290012227211A
:101D900002A8FEF7A5FC0020019000900122282156
:101DA00001A8FEF79DFC012229216846FEF798FC58
:101DB0009DF804009DF8001040EA012000B208EEF2
:101DC000900A01222A2101A8FEF78AFC01222B2178
:101DD0006846FEF785FC9DF804009DF8001040EA77
:101DE000012000B209EE100A01222C2101A8FEF701
:101DF00077FC01222D216846FEF772FC9DF8040055
:101E00009DF8001040EA012000B209EE900A364821
:101E100024300088C0B200282DD03348006820F05C
:101E20000100314908600846006840F00100086080
:101E30002E4807602EA0FEF76DFE782419E02A4890
:101E400024300088C0B258B12748006820F0010053
:101E5000254908600846006840F0010008603C34ED
:101E6000214625A0FEF726FA4FF47A70FFF754FFBB
:101E7000641E002CE3DC9FED278A9DED030AF8EE3B
:101E8000E80A08EE600ADFED240AB4EEE00AF1EE9B
:101E900010FA0CDD21A0FEF70DFA1448056021A010
:101EA000FEF738FE40F6B830FFF736FF07E01FA018
:101EB000FEF700FA0D4806601EA0FEF72BFEB8EEF6
:101EC000E80A28EE000A8DED030AB8EEC90A28EEEA
:101ED000000A8DED040AB8EEE90A28EE000A8DED3D
:101EE000050A00BF50E7000000380140342C0140D3
:101EF000484F4C4400000000486F6C642052656DF0
:101F000061696E696E67202564207365636F6E6416
:101F1000732E0A00295C8F3D000048425354415201
:101F2000540A0000535441525400000053746F701F
:101F30000A00000053544F50202020004FF0407002
:101F4000E1EE100A704700FE1467001D1447009D63
:101F5000009C003F00FA1400005341980019485AB1
:101F6000095A005F00FC015F01FC00AF1404005B34
:101F7000C018815AC9005800C005005F004200F532
:101F8000006700EA00AF00BF004600FF00EF00005E
:101F9000B01F00080000002018000000C401000865
:101FA000C81F00081800002060060000E0010008BB
:101FB000000000000000000000000000060000001B
:081FC0000C0000000B00000002
:040000050800018965
:00000001FF
